{
  "contractName": "Ballot",
  "abi": [
    {
      "inputs": [
        {
          "name": "_numProposals",
          "type": "uint8"
        }
      ],
      "payable": false,
      "stateMutability": "nonpayable",
      "type": "constructor"
    },
    {
      "constant": false,
      "inputs": [
        {
          "name": "toVoter",
          "type": "address"
        }
      ],
      "name": "giveRightToVote",
      "outputs": [],
      "payable": false,
      "stateMutability": "nonpayable",
      "type": "function"
    },
    {
      "constant": false,
      "inputs": [
        {
          "name": "to",
          "type": "address"
        }
      ],
      "name": "delegate",
      "outputs": [],
      "payable": false,
      "stateMutability": "nonpayable",
      "type": "function"
    },
    {
      "constant": false,
      "inputs": [
        {
          "name": "toProposal",
          "type": "uint8"
        }
      ],
      "name": "vote",
      "outputs": [],
      "payable": false,
      "stateMutability": "nonpayable",
      "type": "function"
    },
    {
      "constant": true,
      "inputs": [],
      "name": "winningProposal",
      "outputs": [
        {
          "name": "_winningProposal",
          "type": "uint8"
        }
      ],
      "payable": false,
      "stateMutability": "view",
      "type": "function"
    }
  ],
  "bytecode": "0x608060405234801561001057600080fd5b5060405160208061087c83398101806040528101908080519060200190929190505050336000806101000a81548173ffffffffffffffffffffffffffffffffffffffff021916908373ffffffffffffffffffffffffffffffffffffffff16021790555060018060008060009054906101000a900473ffffffffffffffffffffffffffffffffffffffff1673ffffffffffffffffffffffffffffffffffffffff1673ffffffffffffffffffffffffffffffffffffffff168152602001908152602001600020600001819055508060ff166002816100ec91906100f3565b5050610146565b81548183558181111561011a57818360005260206000209182019101610119919061011f565b5b505050565b61014391905b8082111561013f5760008082016000905550600101610125565b5090565b90565b610727806101556000396000f300608060405260043610610062576000357c0100000000000000000000000000000000000000000000000000000000900463ffffffff1680635c19a95c14610067578063609ff1bd146100aa5780639e7b8d61146100db578063b3f98adc1461011e575b600080fd5b34801561007357600080fd5b506100a8600480360381019080803573ffffffffffffffffffffffffffffffffffffffff16906020019092919050505061014e565b005b3480156100b657600080fd5b506100bf6104a0565b604051808260ff1660ff16815260200191505060405180910390f35b3480156100e757600080fd5b5061011c600480360381019080803573ffffffffffffffffffffffffffffffffffffffff16906020019092919050505061051c565b005b34801561012a57600080fd5b5061014c600480360381019080803560ff169060200190929190505050610619565b005b600080600160003373ffffffffffffffffffffffffffffffffffffffff1673ffffffffffffffffffffffffffffffffffffffff16815260200190815260200160002091508160010160009054906101000a900460ff16156101ae5761049b565b5b600073ffffffffffffffffffffffffffffffffffffffff16600160008573ffffffffffffffffffffffffffffffffffffffff1673ffffffffffffffffffffffffffffffffffffffff16815260200190815260200160002060010160029054906101000a900473ffffffffffffffffffffffffffffffffffffffff1673ffffffffffffffffffffffffffffffffffffffff16141580156102dc57503373ffffffffffffffffffffffffffffffffffffffff16600160008573ffffffffffffffffffffffffffffffffffffffff1673ffffffffffffffffffffffffffffffffffffffff16815260200190815260200160002060010160029054906101000a900473ffffffffffffffffffffffffffffffffffffffff1673ffffffffffffffffffffffffffffffffffffffff1614155b1561034b57600160008473ffffffffffffffffffffffffffffffffffffffff1673ffffffffffffffffffffffffffffffffffffffff16815260200190815260200160002060010160029054906101000a900473ffffffffffffffffffffffffffffffffffffffff1692506101af565b3373ffffffffffffffffffffffffffffffffffffffff168373ffffffffffffffffffffffffffffffffffffffff1614156103845761049b565b60018260010160006101000a81548160ff021916908315150217905550828260010160026101000a81548173ffffffffffffffffffffffffffffffffffffffff021916908373ffffffffffffffffffffffffffffffffffffffff160217905550600160008473ffffffffffffffffffffffffffffffffffffffff1673ffffffffffffffffffffffffffffffffffffffff16815260200190815260200160002090508060010160009054906101000a900460ff161561048357816000015460028260010160019054906101000a900460ff1660ff1681548110151561046457fe5b906000526020600020016000016000828254019250508190555061049a565b816000015481600001600082825401925050819055505b5b505050565b6000806000809150600090505b6002805490508160ff161015610517578160028260ff168154811015156104d057fe5b9060005260206000200160000154111561050a5760028160ff168154811015156104f657fe5b906000526020600020016000015491508092505b80806001019150506104ad565b505090565b6000809054906101000a900473ffffffffffffffffffffffffffffffffffffffff1673ffffffffffffffffffffffffffffffffffffffff163373ffffffffffffffffffffffffffffffffffffffff161415806105c45750600160008273ffffffffffffffffffffffffffffffffffffffff1673ffffffffffffffffffffffffffffffffffffffff16815260200190815260200160002060010160009054906101000a900460ff165b156105ce57610616565b60018060008373ffffffffffffffffffffffffffffffffffffffff1673ffffffffffffffffffffffffffffffffffffffff168152602001908152602001600020600001819055505b50565b6000600160003373ffffffffffffffffffffffffffffffffffffffff1673ffffffffffffffffffffffffffffffffffffffff16815260200190815260200160002090508060010160009054906101000a900460ff168061068157506002805490508260ff1610155b1561068b576106f7565b60018160010160006101000a81548160ff021916908315150217905550818160010160016101000a81548160ff021916908360ff160217905550806000015460028360ff168154811015156106dc57fe5b90600052602060002001600001600082825401925050819055505b50505600a165627a7a72305820e1d50bb33a9eecbc5db086882ecbdd9b7214b68458a0a4943318619b48dff1820029",
  "source": "pragma solidity ^0.4.0;\r\n\r\ncontract Ballot {\r\n\r\n    struct Voter {\r\n        uint weight;\r\n        bool voted;\r\n        uint8 vote;\r\n        address delegate;\r\n    }\r\n    struct Proposal {\r\n        uint voteCount;\r\n    }\r\n\r\n    address chairperson;\r\n    mapping(address => Voter) voters;\r\n    Proposal[] proposals;\r\n\r\n    /// Create a new ballot with $(_numProposals) different proposals.\r\n    function Ballot(uint8 _numProposals) public {\r\n        chairperson = msg.sender;\r\n        voters[chairperson].weight = 1;\r\n        proposals.length = _numProposals;\r\n    }\r\n\r\n    /// Give $(toVoter) the right to vote on this ballot.\r\n    /// May only be called by $(chairperson).\r\n    function giveRightToVote(address toVoter) public {\r\n        if (msg.sender != chairperson || voters[toVoter].voted) return;\r\n        voters[toVoter].weight = 1;\r\n    }\r\n\r\n    /// Delegate your vote to the voter $(to).\r\n    function delegate(address to) public {\r\n        Voter storage sender = voters[msg.sender]; // assigns reference\r\n        if (sender.voted) return;\r\n        while (voters[to].delegate != address(0) && voters[to].delegate != msg.sender)\r\n            to = voters[to].delegate;\r\n        if (to == msg.sender) return;\r\n        sender.voted = true;\r\n        sender.delegate = to;\r\n        Voter storage delegateTo = voters[to];\r\n        if (delegateTo.voted)\r\n            proposals[delegateTo.vote].voteCount += sender.weight;\r\n        else\r\n            delegateTo.weight += sender.weight;\r\n    }\r\n\r\n    /// Give a single vote to proposal $(toProposal).\r\n    function vote(uint8 toProposal) public {\r\n        Voter storage sender = voters[msg.sender];\r\n        if (sender.voted || toProposal >= proposals.length) return;\r\n        sender.voted = true;\r\n        sender.vote = toProposal;\r\n        proposals[toProposal].voteCount += sender.weight;\r\n    }\r\n\r\n    function winningProposal() public constant returns (uint8 _winningProposal) {\r\n        uint256 winningVoteCount = 0;\r\n        for (uint8 prop = 0; prop < proposals.length; prop++)\r\n            if (proposals[prop].voteCount > winningVoteCount) {\r\n                winningVoteCount = proposals[prop].voteCount;\r\n                _winningProposal = prop;\r\n            }\r\n    }\r\n}",
  "sourcePath": "C:\\DownloadSoftware\\LearningMaterials\\blockchain\\finalProjectv2\\test\\contracts\\Ballot.sol",
  "compiler": {
    "name": "solc",
    "version": "0.4.24+commit.e67f0147.Emscripten.clang"
  },
  "schemaVersion": "2.0.1",
  "updatedAt": "2018-12-26T06:00:44.426Z"
}