{
  "contractName": "Bookshelf",
  "abi": [
    {
      "inputs": [],
      "payable": false,
      "stateMutability": "nonpayable",
      "type": "constructor"
    },
    {
      "constant": false,
      "inputs": [
        {
          "name": "own",
          "type": "address"
        },
        {
          "name": "reader",
          "type": "address"
        },
        {
          "name": "bookname",
          "type": "string"
        }
      ],
      "name": "putAbookIn",
      "outputs": [
        {
          "name": "",
          "type": "string"
        }
      ],
      "payable": false,
      "stateMutability": "nonpayable",
      "type": "function"
    },
    {
      "constant": false,
      "inputs": [
        {
          "name": "own",
          "type": "address"
        },
        {
          "name": "reader",
          "type": "address"
        }
      ],
      "name": "clearbookOfReader",
      "outputs": [],
      "payable": false,
      "stateMutability": "nonpayable",
      "type": "function"
    },
    {
      "constant": false,
      "inputs": [
        {
          "name": "reader",
          "type": "address"
        }
      ],
      "name": "Reading",
      "outputs": [
        {
          "name": "",
          "type": "uint256"
        }
      ],
      "payable": false,
      "stateMutability": "nonpayable",
      "type": "function"
    },
    {
      "constant": true,
      "inputs": [
        {
          "name": "reader",
          "type": "address"
        }
      ],
      "name": "GetOwnBookName",
      "outputs": [
        {
          "name": "",
          "type": "string"
        }
      ],
      "payable": false,
      "stateMutability": "view",
      "type": "function"
    },
    {
      "constant": true,
      "inputs": [
        {
          "name": "reader",
          "type": "address"
        }
      ],
      "name": "GetTheNowKeepDays",
      "outputs": [
        {
          "name": "",
          "type": "uint256"
        }
      ],
      "payable": false,
      "stateMutability": "view",
      "type": "function"
    },
    {
      "constant": true,
      "inputs": [
        {
          "name": "reader",
          "type": "address"
        }
      ],
      "name": "GetTheMostKeepDays",
      "outputs": [
        {
          "name": "",
          "type": "uint256"
        }
      ],
      "payable": false,
      "stateMutability": "view",
      "type": "function"
    },
    {
      "constant": false,
      "inputs": [
        {
          "name": "reader",
          "type": "address"
        }
      ],
      "name": "GetAlldaysSpent",
      "outputs": [
        {
          "name": "",
          "type": "uint256"
        }
      ],
      "payable": false,
      "stateMutability": "nonpayable",
      "type": "function"
    },
    {
      "constant": false,
      "inputs": [
        {
          "name": "own",
          "type": "address"
        },
        {
          "name": "reader",
          "type": "address"
        },
        {
          "name": "money",
          "type": "uint256"
        }
      ],
      "name": "CheckTheShelf",
      "outputs": [],
      "payable": false,
      "stateMutability": "nonpayable",
      "type": "function"
    },
    {
      "constant": true,
      "inputs": [
        {
          "name": "reader",
          "type": "address"
        }
      ],
      "name": "BeCheckedOrNot",
      "outputs": [
        {
          "name": "",
          "type": "bool"
        }
      ],
      "payable": false,
      "stateMutability": "view",
      "type": "function"
    },
    {
      "constant": true,
      "inputs": [
        {
          "name": "reader",
          "type": "address"
        }
      ],
      "name": "CheckTheMoneyNowCanGet",
      "outputs": [
        {
          "name": "",
          "type": "uint256"
        }
      ],
      "payable": false,
      "stateMutability": "view",
      "type": "function"
    }
  ],
  "bytecode": "0x6080604052606060405190810160405280603d81526020017f5468697320626f6f6b7368656c66206973206e6f7420796f757273207468617481526020017f20796f752068617665206e6f20726967687420746f20646f207468617400000081525060029080519060200190620000789291906200011c565b506040805190810160405280601681526020017f596f7520646f6e27742068617665206120626f6f6b2e0000000000000000000081525060039080519060200190620000c69291906200011c565b50348015620000d457600080fd5b5033600160006101000a81548173ffffffffffffffffffffffffffffffffffffffff021916908373ffffffffffffffffffffffffffffffffffffffff160217905550620001cb565b828054600181600116156101000203166002900490600052602060002090601f016020900481019282601f106200015f57805160ff191683800117855562000190565b8280016001018555821562000190579182015b828111156200018f57825182559160200191906001019062000172565b5b5090506200019f9190620001a3565b5090565b620001c891905b80821115620001c4576000816000905550600101620001aa565b5090565b90565b611c8f80620001db6000396000f3006080604052600436106100a4576000357c0100000000000000000000000000000000000000000000000000000000900463ffffffff16806358f0562b146100a95780635c84651a146101005780636fba4bf81461015b57806381371342146101b257806386654023146102d4578063a1197ad91461032b578063c01e15cd14610398578063cb50376814610454578063cebb246f146104ab578063d94af6dc1461050e575b600080fd5b3480156100b557600080fd5b506100ea600480360381019080803573ffffffffffffffffffffffffffffffffffffffff169060200190929190505050610565565b6040518082815260200191505060405180910390f35b34801561010c57600080fd5b50610141600480360381019080803573ffffffffffffffffffffffffffffffffffffffff169060200190929190505050610579565b604051808215151515815260200191505060405180910390f35b34801561016757600080fd5b5061019c600480360381019080803573ffffffffffffffffffffffffffffffffffffffff1690602001909291905050506106e8565b6040518082815260200191505060405180910390f35b3480156101be57600080fd5b50610259600480360381019080803573ffffffffffffffffffffffffffffffffffffffff169060200190929190803573ffffffffffffffffffffffffffffffffffffffff169060200190929190803590602001908201803590602001908080601f0160208091040260200160405190810160405280939291908181526020018383808284378201915050505050509192919290505050610cb4565b6040518080602001828103825283818151815260200191508051906020019080838360005b8381101561029957808201518184015260208101905061027e565b50505050905090810190601f1680156102c65780820380516001836020036101000a031916815260200191505b509250505060405180910390f35b3480156102e057600080fd5b50610315600480360381019080803573ffffffffffffffffffffffffffffffffffffffff1690602001909291905050506110ad565b6040518082815260200191505060405180910390f35b34801561033757600080fd5b50610396600480360381019080803573ffffffffffffffffffffffffffffffffffffffff169060200190929190803573ffffffffffffffffffffffffffffffffffffffff16906020019092919080359060200190929190505050611272565b005b3480156103a457600080fd5b506103d9600480360381019080803573ffffffffffffffffffffffffffffffffffffffff169060200190929190505050611430565b6040518080602001828103825283818151815260200191508051906020019080838360005b838110156104195780820151818401526020810190506103fe565b50505050905090810190601f1680156104465780820380516001836020036101000a031916815260200191505b509250505060405180910390f35b34801561046057600080fd5b50610495600480360381019080803573ffffffffffffffffffffffffffffffffffffffff16906020019092919050505061162a565b6040518082815260200191505060405180910390f35b3480156104b757600080fd5b5061050c600480360381019080803573ffffffffffffffffffffffffffffffffffffffff169060200190929190803573ffffffffffffffffffffffffffffffffffffffff16906020019092919050505061163e565b005b34801561051a57600080fd5b5061054f600480360381019080803573ffffffffffffffffffffffffffffffffffffffff16906020019092919050505061180c565b6040518082815260200191505060405180910390f35b600061057282600161196e565b9050919050565b60008060008373ffffffffffffffffffffffffffffffffffffffff1673ffffffffffffffffffffffffffffffffffffffff16815260200190815260200160002060010160009054906101000a900460ff166003901515610691576040517f08c379a000000000000000000000000000000000000000000000000000000000815260040180806020018281038252838181546001816001161561010002031660029004815260200191508054600181600116156101000203166002900480156106825780601f1061065757610100808354040283529160200191610682565b820191906000526020600020905b81548152906001019060200180831161066557829003601f168201915b50509250505060405180910390fd5b506000808373ffffffffffffffffffffffffffffffffffffffff1673ffffffffffffffffffffffffffffffffffffffff16815260200190815260200160002060050160009054906101000a900460ff169050919050565b6000806000808473ffffffffffffffffffffffffffffffffffffffff1673ffffffffffffffffffffffffffffffffffffffff16815260200190815260200160002060010160009054906101000a900460ff166003901515610801576040517f08c379a000000000000000000000000000000000000000000000000000000000815260040180806020018281038252838181546001816001161561010002031660029004815260200191508054600181600116156101000203166002900480156107f25780601f106107c7576101008083540402835291602001916107f2565b820191906000526020600020905b8154815290600101906020018083116107d557829003601f168201915b50509250505060405180910390fd5b506001620151806000808673ffffffffffffffffffffffffffffffffffffffff1673ffffffffffffffffffffffffffffffffffffffff16815260200190815260200160002060070154420381151561085557fe5b04016000808573ffffffffffffffffffffffffffffffffffffffff1673ffffffffffffffffffffffffffffffffffffffff1681526020019081526020016000206004018190555060016000808573ffffffffffffffffffffffffffffffffffffffff1673ffffffffffffffffffffffffffffffffffffffff1681526020019081526020016000206004015414156109755760016000808573ffffffffffffffffffffffffffffffffffffffff1673ffffffffffffffffffffffffffffffffffffffff1681526020019081526020016000206003018190555060016000808573ffffffffffffffffffffffffffffffffffffffff1673ffffffffffffffffffffffffffffffffffffffff168152602001908152602001600020600201819055505b620151806000808573ffffffffffffffffffffffffffffffffffffffff1673ffffffffffffffffffffffffffffffffffffffff1681526020019081526020016000206008015442038115156109c657fe5b0490506001811015610a1b576000808473ffffffffffffffffffffffffffffffffffffffff1673ffffffffffffffffffffffffffffffffffffffff168152602001908152602001600020600901549150610cae565b6002811015610b8b5760016000808573ffffffffffffffffffffffffffffffffffffffff1673ffffffffffffffffffffffffffffffffffffffff168152602001908152602001600020600201600082825401925050819055506000808473ffffffffffffffffffffffffffffffffffffffff1673ffffffffffffffffffffffffffffffffffffffff168152602001908152602001600020600301546000808573ffffffffffffffffffffffffffffffffffffffff1673ffffffffffffffffffffffffffffffffffffffff168152602001908152602001600020600201541115610b86576000808473ffffffffffffffffffffffffffffffffffffffff1673ffffffffffffffffffffffffffffffffffffffff168152602001908152602001600020600201546000808573ffffffffffffffffffffffffffffffffffffffff1673ffffffffffffffffffffffffffffffffffffffff168152602001908152602001600020600301819055505b610bd3565b60016000808573ffffffffffffffffffffffffffffffffffffffff1673ffffffffffffffffffffffffffffffffffffffff168152602001908152602001600020600201819055505b426000808573ffffffffffffffffffffffffffffffffffffffff1673ffffffffffffffffffffffffffffffffffffffff1681526020019081526020016000206008018190555060016000808573ffffffffffffffffffffffffffffffffffffffff1673ffffffffffffffffffffffffffffffffffffffff168152602001908152602001600020600901600082825401925050819055506000808473ffffffffffffffffffffffffffffffffffffffff1673ffffffffffffffffffffffffffffffffffffffff1681526020019081526020016000206009015491505b50919050565b60608373ffffffffffffffffffffffffffffffffffffffff16600160009054906101000a900473ffffffffffffffffffffffffffffffffffffffff1673ffffffffffffffffffffffffffffffffffffffff16146002901515610dce576040517f08c379a00000000000000000000000000000000000000000000000000000000081526004018080602001828103825283818154600181600116156101000203166002900481526020019150805460018160011615610100020316600290048015610dbf5780601f10610d9457610100808354040283529160200191610dbf565b820191906000526020600020905b815481529060010190602001808311610da257829003601f168201915b50509250505060405180910390fd5b50816000808573ffffffffffffffffffffffffffffffffffffffff1673ffffffffffffffffffffffffffffffffffffffff1681526020019081526020016000206000019080519060200190610e24929190611b76565b5060008060008573ffffffffffffffffffffffffffffffffffffffff1673ffffffffffffffffffffffffffffffffffffffff1681526020019081526020016000206002018190555060016000808573ffffffffffffffffffffffffffffffffffffffff1673ffffffffffffffffffffffffffffffffffffffff16815260200190815260200160002060010160006101000a81548160ff02191690831515021790555060008060008573ffffffffffffffffffffffffffffffffffffffff1673ffffffffffffffffffffffffffffffffffffffff1681526020019081526020016000206003018190555060008060008573ffffffffffffffffffffffffffffffffffffffff1673ffffffffffffffffffffffffffffffffffffffff1681526020019081526020016000206004018190555060008060008573ffffffffffffffffffffffffffffffffffffffff1673ffffffffffffffffffffffffffffffffffffffff16815260200190815260200160002060060181905550426000808573ffffffffffffffffffffffffffffffffffffffff1673ffffffffffffffffffffffffffffffffffffffff16815260200190815260200160002060070181905550426000808573ffffffffffffffffffffffffffffffffffffffff1673ffffffffffffffffffffffffffffffffffffffff1681526020019081526020016000206008018190555060016000808573ffffffffffffffffffffffffffffffffffffffff1673ffffffffffffffffffffffffffffffffffffffff168152602001908152602001600020600901819055506040805190810160405280600481526020017f646f6e650000000000000000000000000000000000000000000000000000000081525090509392505050565b60008060008373ffffffffffffffffffffffffffffffffffffffff1673ffffffffffffffffffffffffffffffffffffffff16815260200190815260200160002060010160009054906101000a900460ff1660039015156111c5576040517f08c379a000000000000000000000000000000000000000000000000000000000815260040180806020018281038252838181546001816001161561010002031660029004815260200191508054600181600116156101000203166002900480156111b65780601f1061118b576101008083540402835291602001916111b6565b820191906000526020600020905b81548152906001019060200180831161119957829003601f168201915b50509250505060405180910390fd5b506001620151806000808573ffffffffffffffffffffffffffffffffffffffff1673ffffffffffffffffffffffffffffffffffffffff16815260200190815260200160002060070154420381151561121957fe5b04016000808473ffffffffffffffffffffffffffffffffffffffff1673ffffffffffffffffffffffffffffffffffffffff1681526020019081526020016000206004018190555061126b82600261196e565b9050919050565b8273ffffffffffffffffffffffffffffffffffffffff16600160009054906101000a900473ffffffffffffffffffffffffffffffffffffffff1673ffffffffffffffffffffffffffffffffffffffff1614600290151561138a576040517f08c379a0000000000000000000000000000000000000000000000000000000008152600401808060200182810382528381815460018160011615610100020316600290048152602001915080546001816001161561010002031660029004801561137b5780601f106113505761010080835404028352916020019161137b565b820191906000526020600020905b81548152906001019060200180831161135e57829003601f168201915b50509250505060405180910390fd5b5060016000808473ffffffffffffffffffffffffffffffffffffffff1673ffffffffffffffffffffffffffffffffffffffff16815260200190815260200160002060050160006101000a81548160ff021916908315150217905550806000808473ffffffffffffffffffffffffffffffffffffffff1673ffffffffffffffffffffffffffffffffffffffff16815260200190815260200160002060060181905550505050565b60606000808373ffffffffffffffffffffffffffffffffffffffff1673ffffffffffffffffffffffffffffffffffffffff16815260200190815260200160002060010160009054906101000a900460ff166003901515611548576040517f08c379a000000000000000000000000000000000000000000000000000000000815260040180806020018281038252838181546001816001161561010002031660029004815260200191508054600181600116156101000203166002900480156115395780601f1061150e57610100808354040283529160200191611539565b820191906000526020600020905b81548152906001019060200180831161151c57829003601f168201915b50509250505060405180910390fd5b506000808373ffffffffffffffffffffffffffffffffffffffff1673ffffffffffffffffffffffffffffffffffffffff1681526020019081526020016000206000018054600181600116156101000203166002900480601f01602080910402602001604051908101604052809291908181526020018280546001816001161561010002031660029004801561161e5780601f106115f35761010080835404028352916020019161161e565b820191906000526020600020905b81548152906001019060200180831161160157829003601f168201915b50505050509050919050565b600061163782600061196e565b9050919050565b8173ffffffffffffffffffffffffffffffffffffffff16600160009054906101000a900473ffffffffffffffffffffffffffffffffffffffff1673ffffffffffffffffffffffffffffffffffffffff16146002901515611756576040517f08c379a000000000000000000000000000000000000000000000000000000000815260040180806020018281038252838181546001816001161561010002031660029004815260200191508054600181600116156101000203166002900480156117475780601f1061171c57610100808354040283529160200191611747565b820191906000526020600020905b81548152906001019060200180831161172a57829003601f168201915b50509250505060405180910390fd5b506000808273ffffffffffffffffffffffffffffffffffffffff1673ffffffffffffffffffffffffffffffffffffffff168152602001908152602001600020600080820160006117a69190611bf6565b6001820160006101000a81549060ff02191690556002820160009055600382016000905560048201600090556005820160006101000a81549060ff0219169055600682016000905560078201600090556008820160009055600982016000905550505050565b60008060008373ffffffffffffffffffffffffffffffffffffffff1673ffffffffffffffffffffffffffffffffffffffff16815260200190815260200160002060010160009054906101000a900460ff166003901515611924576040517f08c379a000000000000000000000000000000000000000000000000000000000815260040180806020018281038252838181546001816001161561010002031660029004815260200191508054600181600116156101000203166002900480156119155780601f106118ea57610100808354040283529160200191611915565b820191906000526020600020905b8154815290600101906020018083116118f857829003601f168201915b50509250505060405180910390fd5b506000808373ffffffffffffffffffffffffffffffffffffffff1673ffffffffffffffffffffffffffffffffffffffff168152602001908152602001600020600601549050919050565b60008060008473ffffffffffffffffffffffffffffffffffffffff1673ffffffffffffffffffffffffffffffffffffffff16815260200190815260200160002060010160009054906101000a900460ff166003901515611a86576040517f08c379a00000000000000000000000000000000000000000000000000000000081526004018080602001828103825283818154600181600116156101000203166002900481526020019150805460018160011615610100020316600290048015611a775780601f10611a4c57610100808354040283529160200191611a77565b820191906000526020600020905b815481529060010190602001808311611a5a57829003601f168201915b50509250505060405180910390fd5b506002821415611ad9576000808473ffffffffffffffffffffffffffffffffffffffff1673ffffffffffffffffffffffffffffffffffffffff168152602001908152602001600020600401549050611b70565b6001821415611b2b576000808473ffffffffffffffffffffffffffffffffffffffff1673ffffffffffffffffffffffffffffffffffffffff168152602001908152602001600020600301549050611b70565b6000808473ffffffffffffffffffffffffffffffffffffffff1673ffffffffffffffffffffffffffffffffffffffff1681526020019081526020016000206002015490505b92915050565b828054600181600116156101000203166002900490600052602060002090601f016020900481019282601f10611bb757805160ff1916838001178555611be5565b82800160010185558215611be5579182015b82811115611be4578251825591602001919060010190611bc9565b5b509050611bf29190611c3e565b5090565b50805460018160011615610100020316600290046000825580601f10611c1c5750611c3b565b601f016020900490600052602060002090810190611c3a9190611c3e565b5b50565b611c6091905b80821115611c5c576000816000905550600101611c44565b5090565b905600a165627a7a723058204f767bf50b753b9e7b499e0f446ba100401677aa6c3162583000dbad486fb8a10029",
  "source": "pragma solidity ^0.4.24;\n\ncontract Bookshelf {\n    struct Reader {\n        string book;\n        bool hasBook;\n        uint nowKeepingDays;\n        uint mostKeepingDays;\n        uint spendDays;\n        bool sellerCheck;\n        uint getMoney;\n        uint beginTime;\n        uint lastReadTime;\n        uint paragraph;\n    }\n\n    mapping(address => Reader) Readers;\n    address internal owner;\n\n\n    string RightWarn = \"This bookshelf is not yours that you have no right to do that\";\n    string NoBookWarn = \"You don't have a book.\";\n\n    constructor() public {\n        owner = msg.sender;\n    }\n\n    function putAbookIn(address own, address reader, string bookname) public returns (string) {\n        require(owner == own, RightWarn);\n        Readers[reader].book = bookname;\n        Readers[reader].nowKeepingDays = 0;\n        Readers[reader].hasBook = true;\n        Readers[reader].mostKeepingDays = 0;\n        Readers[reader].spendDays = 0;\n        Readers[reader].getMoney = 0;\n        Readers[reader].beginTime = now;\n        Readers[reader].lastReadTime = now;\n        Readers[reader].paragraph = 1;\n        return \"done\";\n    }\n\n    function clearbookOfReader(address own, address reader) public {\n        require(owner == own, RightWarn);\n        delete Readers[reader];\n    }\n\n    function Reading(address reader) public returns (uint) {\n        require(Readers[reader].hasBook, NoBookWarn);\n        Readers[reader].spendDays = (now - Readers[reader].beginTime) / 86400 + 1;\n        if (Readers[reader].spendDays == 1) {\n            Readers[reader].mostKeepingDays = 1;\n            Readers[reader].nowKeepingDays = 1;\n        }\n        uint interval = (now - Readers[reader].lastReadTime) / 86400;\n        if (interval < 1) {\n            return Readers[reader].paragraph;\n        } else if (interval < 2) {\n            Readers[reader].nowKeepingDays += 1;\n            if (Readers[reader].nowKeepingDays > Readers[reader].mostKeepingDays) {\n                Readers[reader].mostKeepingDays = Readers[reader].nowKeepingDays;\n            }\n        } else {\n            Readers[reader].nowKeepingDays = 1;\n        }\n        Readers[reader].lastReadTime = now;\n        Readers[reader].paragraph += 1;\n        return Readers[reader].paragraph;\n    }\n\n    function GetOwnBookName(address reader) public view returns (string) {\n        require(Readers[reader].hasBook, NoBookWarn);\n        return Readers[reader].book;\n    }\n\n    function GetTheNowKeepDays(address reader) public view returns (uint) {\n        return GetTheDays(reader, 0);\n    }\n\n    function GetTheMostKeepDays(address reader) public view returns (uint) {\n        return GetTheDays(reader, 1);\n    }\n\n    function GetAlldaysSpent(address reader) public returns (uint) {\n        require(Readers[reader].hasBook, NoBookWarn);\n        Readers[reader].spendDays = (now - Readers[reader].beginTime) / 86400 + 1;\n        return GetTheDays(reader, 2);\n    }\n\n    function GetTheDays(address reader, uint dayType) internal view returns (uint) {\n        require(Readers[reader].hasBook, NoBookWarn);\n        if (dayType == 2) {\n            return Readers[reader].spendDays;\n        } else if (dayType == 1) {\n            return Readers[reader].mostKeepingDays;\n        } else {\n            return Readers[reader].nowKeepingDays;\n        }\n    }\n\n    function CheckTheShelf(address own, address reader, uint money) public {\n        require(owner == own, RightWarn);\n        Readers[reader].sellerCheck = true;\n        Readers[reader].getMoney = money;\n    }\n\n    function BeCheckedOrNot(address reader) public view returns (bool) {\n        require(Readers[reader].hasBook, NoBookWarn);\n        return Readers[reader].sellerCheck;\n    }\n\n    function CheckTheMoneyNowCanGet(address reader) public view returns (uint) {\n        require(Readers[reader].hasBook, NoBookWarn);\n        return Readers[reader].getMoney;\n    }\n}\n",
  "sourcePath": "C:\\DownloadSoftware\\LearningMaterials\\blockchain\\finalProjectv2\\test\\contracts\\Bookshelf.sol",
  "compiler": {
    "name": "solc",
    "version": "0.4.24+commit.e67f0147.Emscripten.clang"
  },
  "schemaVersion": "2.0.1",
  "updatedAt": "2018-12-27T14:27:23.393Z"
}