{
  "contractName": "Bookshelf",
  "abi": [
    {
      "constant": true,
      "inputs": [
        {
          "name": "",
          "type": "address"
        }
      ],
      "name": "Readers",
      "outputs": [
        {
          "name": "bookId",
          "type": "uint256"
        },
        {
          "name": "hasBook",
          "type": "bool"
        },
        {
          "name": "nowKeepingDays",
          "type": "uint256"
        },
        {
          "name": "mostKeepingDays",
          "type": "uint256"
        },
        {
          "name": "spendDays",
          "type": "uint256"
        },
        {
          "name": "sellerCheck",
          "type": "bool"
        },
        {
          "name": "getMoney",
          "type": "uint256"
        },
        {
          "name": "beginTime",
          "type": "uint256"
        },
        {
          "name": "lastReadTime",
          "type": "uint256"
        },
        {
          "name": "paragraph",
          "type": "uint256"
        }
      ],
      "payable": false,
      "stateMutability": "view",
      "type": "function"
    },
    {
      "inputs": [],
      "payable": false,
      "stateMutability": "nonpayable",
      "type": "constructor"
    },
    {
      "constant": false,
      "inputs": [
        {
          "name": "own",
          "type": "address"
        },
        {
          "name": "reader",
          "type": "address"
        },
        {
          "name": "bookId",
          "type": "uint256"
        }
      ],
      "name": "putAbookIn",
      "outputs": [],
      "payable": false,
      "stateMutability": "nonpayable",
      "type": "function"
    },
    {
      "constant": false,
      "inputs": [
        {
          "name": "own",
          "type": "address"
        },
        {
          "name": "reader",
          "type": "address"
        }
      ],
      "name": "clearbookOfReader",
      "outputs": [],
      "payable": false,
      "stateMutability": "nonpayable",
      "type": "function"
    },
    {
      "constant": false,
      "inputs": [
        {
          "name": "reader",
          "type": "address"
        }
      ],
      "name": "Reading",
      "outputs": [
        {
          "name": "",
          "type": "uint256"
        }
      ],
      "payable": false,
      "stateMutability": "nonpayable",
      "type": "function"
    },
    {
      "constant": true,
      "inputs": [
        {
          "name": "reader",
          "type": "address"
        }
      ],
      "name": "GetOwnBookName",
      "outputs": [
        {
          "name": "",
          "type": "uint256"
        }
      ],
      "payable": false,
      "stateMutability": "view",
      "type": "function"
    },
    {
      "constant": true,
      "inputs": [
        {
          "name": "reader",
          "type": "address"
        }
      ],
      "name": "GetTheNowKeepDays",
      "outputs": [
        {
          "name": "",
          "type": "uint256"
        }
      ],
      "payable": false,
      "stateMutability": "view",
      "type": "function"
    },
    {
      "constant": true,
      "inputs": [
        {
          "name": "reader",
          "type": "address"
        }
      ],
      "name": "GetTheMostKeepDays",
      "outputs": [
        {
          "name": "",
          "type": "uint256"
        }
      ],
      "payable": false,
      "stateMutability": "view",
      "type": "function"
    },
    {
      "constant": false,
      "inputs": [
        {
          "name": "reader",
          "type": "address"
        }
      ],
      "name": "GetAlldaysSpent",
      "outputs": [
        {
          "name": "",
          "type": "uint256"
        }
      ],
      "payable": false,
      "stateMutability": "nonpayable",
      "type": "function"
    },
    {
      "constant": false,
      "inputs": [
        {
          "name": "own",
          "type": "address"
        },
        {
          "name": "reader",
          "type": "address"
        },
        {
          "name": "money",
          "type": "uint256"
        }
      ],
      "name": "CheckTheShelf",
      "outputs": [],
      "payable": false,
      "stateMutability": "nonpayable",
      "type": "function"
    },
    {
      "constant": true,
      "inputs": [
        {
          "name": "reader",
          "type": "address"
        }
      ],
      "name": "BeCheckedOrNot",
      "outputs": [
        {
          "name": "",
          "type": "bool"
        }
      ],
      "payable": false,
      "stateMutability": "view",
      "type": "function"
    },
    {
      "constant": true,
      "inputs": [
        {
          "name": "reader",
          "type": "address"
        }
      ],
      "name": "CheckTheMoneyNowCanGet",
      "outputs": [
        {
          "name": "",
          "type": "uint256"
        }
      ],
      "payable": false,
      "stateMutability": "view",
      "type": "function"
    }
  ],
  "bytecode": "0x6080604052606060405190810160405280603d81526020017f5468697320626f6f6b7368656c66206973206e6f7420796f757273207468617481526020017f20796f752068617665206e6f20726967687420746f20646f207468617400000081525060029080519060200190620000789291906200011c565b506040805190810160405280601681526020017f596f7520646f6e27742068617665206120626f6f6b2e0000000000000000000081525060039080519060200190620000c69291906200011c565b50348015620000d457600080fd5b5033600160006101000a81548173ffffffffffffffffffffffffffffffffffffffff021916908373ffffffffffffffffffffffffffffffffffffffff160217905550620001cb565b828054600181600116156101000203166002900490600052602060002090601f016020900481019282601f106200015f57805160ff191683800117855562000190565b8280016001018555821562000190579182015b828111156200018f57825182559160200191906001019062000172565b5b5090506200019f9190620001a3565b5090565b620001c891905b80821115620001c4576000816000905550600101620001aa565b5090565b90565b611ab380620001db6000396000f3006080604052600436106100af576000357c0100000000000000000000000000000000000000000000000000000000900463ffffffff16806358f0562b146100b45780635c84651a1461010b5780636fba4bf81461016657806386654023146101bd5780639097440414610214578063a1197ad914610281578063c01e15cd146102ee578063cb50376814610345578063cebb246f1461039c578063d77cb3fe146103ff578063d94af6dc1461049d575b600080fd5b3480156100c057600080fd5b506100f5600480360381019080803573ffffffffffffffffffffffffffffffffffffffff1690602001909291905050506104f4565b6040518082815260200191505060405180910390f35b34801561011757600080fd5b5061014c600480360381019080803573ffffffffffffffffffffffffffffffffffffffff169060200190929190505050610508565b604051808215151515815260200191505060405180910390f35b34801561017257600080fd5b506101a7600480360381019080803573ffffffffffffffffffffffffffffffffffffffff169060200190929190505050610677565b6040518082815260200191505060405180910390f35b3480156101c957600080fd5b506101fe600480360381019080803573ffffffffffffffffffffffffffffffffffffffff169060200190929190505050610c43565b6040518082815260200191505060405180910390f35b34801561022057600080fd5b5061027f600480360381019080803573ffffffffffffffffffffffffffffffffffffffff169060200190929190803573ffffffffffffffffffffffffffffffffffffffff16906020019092919080359060200190929190505050610e08565b005b34801561028d57600080fd5b506102ec600480360381019080803573ffffffffffffffffffffffffffffffffffffffff169060200190929190803573ffffffffffffffffffffffffffffffffffffffff169060200190929190803590602001909291905050506111b5565b005b3480156102fa57600080fd5b5061032f600480360381019080803573ffffffffffffffffffffffffffffffffffffffff169060200190929190505050611373565b6040518082815260200191505060405180910390f35b34801561035157600080fd5b50610386600480360381019080803573ffffffffffffffffffffffffffffffffffffffff1690602001909291905050506114d5565b6040518082815260200191505060405180910390f35b3480156103a857600080fd5b506103fd600480360381019080803573ffffffffffffffffffffffffffffffffffffffff169060200190929190803573ffffffffffffffffffffffffffffffffffffffff1690602001909291905050506114e9565b005b34801561040b57600080fd5b50610440600480360381019080803573ffffffffffffffffffffffffffffffffffffffff1690602001909291905050506116af565b604051808b81526020018a151515158152602001898152602001888152602001878152602001861515151581526020018581526020018481526020018381526020018281526020019a505050505050505050505060405180910390f35b3480156104a957600080fd5b506104de600480360381019080803573ffffffffffffffffffffffffffffffffffffffff16906020019092919050505061171d565b6040518082815260200191505060405180910390f35b600061050182600161187f565b9050919050565b60008060008373ffffffffffffffffffffffffffffffffffffffff1673ffffffffffffffffffffffffffffffffffffffff16815260200190815260200160002060010160009054906101000a900460ff166003901515610620576040517f08c379a000000000000000000000000000000000000000000000000000000000815260040180806020018281038252838181546001816001161561010002031660029004815260200191508054600181600116156101000203166002900480156106115780601f106105e657610100808354040283529160200191610611565b820191906000526020600020905b8154815290600101906020018083116105f457829003601f168201915b50509250505060405180910390fd5b506000808373ffffffffffffffffffffffffffffffffffffffff1673ffffffffffffffffffffffffffffffffffffffff16815260200190815260200160002060050160009054906101000a900460ff169050919050565b6000806000808473ffffffffffffffffffffffffffffffffffffffff1673ffffffffffffffffffffffffffffffffffffffff16815260200190815260200160002060010160009054906101000a900460ff166003901515610790576040517f08c379a000000000000000000000000000000000000000000000000000000000815260040180806020018281038252838181546001816001161561010002031660029004815260200191508054600181600116156101000203166002900480156107815780601f1061075657610100808354040283529160200191610781565b820191906000526020600020905b81548152906001019060200180831161076457829003601f168201915b50509250505060405180910390fd5b506001620151806000808673ffffffffffffffffffffffffffffffffffffffff1673ffffffffffffffffffffffffffffffffffffffff1681526020019081526020016000206007015442038115156107e457fe5b04016000808573ffffffffffffffffffffffffffffffffffffffff1673ffffffffffffffffffffffffffffffffffffffff1681526020019081526020016000206004018190555060016000808573ffffffffffffffffffffffffffffffffffffffff1673ffffffffffffffffffffffffffffffffffffffff1681526020019081526020016000206004015414156109045760016000808573ffffffffffffffffffffffffffffffffffffffff1673ffffffffffffffffffffffffffffffffffffffff1681526020019081526020016000206003018190555060016000808573ffffffffffffffffffffffffffffffffffffffff1673ffffffffffffffffffffffffffffffffffffffff168152602001908152602001600020600201819055505b620151806000808573ffffffffffffffffffffffffffffffffffffffff1673ffffffffffffffffffffffffffffffffffffffff16815260200190815260200160002060080154420381151561095557fe5b04905060018110156109aa576000808473ffffffffffffffffffffffffffffffffffffffff1673ffffffffffffffffffffffffffffffffffffffff168152602001908152602001600020600901549150610c3d565b6002811015610b1a5760016000808573ffffffffffffffffffffffffffffffffffffffff1673ffffffffffffffffffffffffffffffffffffffff168152602001908152602001600020600201600082825401925050819055506000808473ffffffffffffffffffffffffffffffffffffffff1673ffffffffffffffffffffffffffffffffffffffff168152602001908152602001600020600301546000808573ffffffffffffffffffffffffffffffffffffffff1673ffffffffffffffffffffffffffffffffffffffff168152602001908152602001600020600201541115610b15576000808473ffffffffffffffffffffffffffffffffffffffff1673ffffffffffffffffffffffffffffffffffffffff168152602001908152602001600020600201546000808573ffffffffffffffffffffffffffffffffffffffff1673ffffffffffffffffffffffffffffffffffffffff168152602001908152602001600020600301819055505b610b62565b60016000808573ffffffffffffffffffffffffffffffffffffffff1673ffffffffffffffffffffffffffffffffffffffff168152602001908152602001600020600201819055505b426000808573ffffffffffffffffffffffffffffffffffffffff1673ffffffffffffffffffffffffffffffffffffffff1681526020019081526020016000206008018190555060016000808573ffffffffffffffffffffffffffffffffffffffff1673ffffffffffffffffffffffffffffffffffffffff168152602001908152602001600020600901600082825401925050819055506000808473ffffffffffffffffffffffffffffffffffffffff1673ffffffffffffffffffffffffffffffffffffffff1681526020019081526020016000206009015491505b50919050565b60008060008373ffffffffffffffffffffffffffffffffffffffff1673ffffffffffffffffffffffffffffffffffffffff16815260200190815260200160002060010160009054906101000a900460ff166003901515610d5b576040517f08c379a00000000000000000000000000000000000000000000000000000000081526004018080602001828103825283818154600181600116156101000203166002900481526020019150805460018160011615610100020316600290048015610d4c5780601f10610d2157610100808354040283529160200191610d4c565b820191906000526020600020905b815481529060010190602001808311610d2f57829003601f168201915b50509250505060405180910390fd5b506001620151806000808573ffffffffffffffffffffffffffffffffffffffff1673ffffffffffffffffffffffffffffffffffffffff168152602001908152602001600020600701544203811515610daf57fe5b04016000808473ffffffffffffffffffffffffffffffffffffffff1673ffffffffffffffffffffffffffffffffffffffff16815260200190815260200160002060040181905550610e0182600261187f565b9050919050565b8273ffffffffffffffffffffffffffffffffffffffff16600160009054906101000a900473ffffffffffffffffffffffffffffffffffffffff1673ffffffffffffffffffffffffffffffffffffffff16146002901515610f20576040517f08c379a00000000000000000000000000000000000000000000000000000000081526004018080602001828103825283818154600181600116156101000203166002900481526020019150805460018160011615610100020316600290048015610f115780601f10610ee657610100808354040283529160200191610f11565b820191906000526020600020905b815481529060010190602001808311610ef457829003601f168201915b50509250505060405180910390fd5b50806000808473ffffffffffffffffffffffffffffffffffffffff1673ffffffffffffffffffffffffffffffffffffffff1681526020019081526020016000206000018190555060008060008473ffffffffffffffffffffffffffffffffffffffff1673ffffffffffffffffffffffffffffffffffffffff1681526020019081526020016000206002018190555060016000808473ffffffffffffffffffffffffffffffffffffffff1673ffffffffffffffffffffffffffffffffffffffff16815260200190815260200160002060010160006101000a81548160ff02191690831515021790555060008060008473ffffffffffffffffffffffffffffffffffffffff1673ffffffffffffffffffffffffffffffffffffffff1681526020019081526020016000206003018190555060008060008473ffffffffffffffffffffffffffffffffffffffff1673ffffffffffffffffffffffffffffffffffffffff1681526020019081526020016000206004018190555060008060008473ffffffffffffffffffffffffffffffffffffffff1673ffffffffffffffffffffffffffffffffffffffff16815260200190815260200160002060060181905550426000808473ffffffffffffffffffffffffffffffffffffffff1673ffffffffffffffffffffffffffffffffffffffff16815260200190815260200160002060070181905550426000808473ffffffffffffffffffffffffffffffffffffffff1673ffffffffffffffffffffffffffffffffffffffff1681526020019081526020016000206008018190555060016000808473ffffffffffffffffffffffffffffffffffffffff1673ffffffffffffffffffffffffffffffffffffffff16815260200190815260200160002060090181905550505050565b8273ffffffffffffffffffffffffffffffffffffffff16600160009054906101000a900473ffffffffffffffffffffffffffffffffffffffff1673ffffffffffffffffffffffffffffffffffffffff161460029015156112cd576040517f08c379a000000000000000000000000000000000000000000000000000000000815260040180806020018281038252838181546001816001161561010002031660029004815260200191508054600181600116156101000203166002900480156112be5780601f10611293576101008083540402835291602001916112be565b820191906000526020600020905b8154815290600101906020018083116112a157829003601f168201915b50509250505060405180910390fd5b5060016000808473ffffffffffffffffffffffffffffffffffffffff1673ffffffffffffffffffffffffffffffffffffffff16815260200190815260200160002060050160006101000a81548160ff021916908315150217905550806000808473ffffffffffffffffffffffffffffffffffffffff1673ffffffffffffffffffffffffffffffffffffffff16815260200190815260200160002060060181905550505050565b60008060008373ffffffffffffffffffffffffffffffffffffffff1673ffffffffffffffffffffffffffffffffffffffff16815260200190815260200160002060010160009054906101000a900460ff16600390151561148b576040517f08c379a0000000000000000000000000000000000000000000000000000000008152600401808060200182810382528381815460018160011615610100020316600290048152602001915080546001816001161561010002031660029004801561147c5780601f106114515761010080835404028352916020019161147c565b820191906000526020600020905b81548152906001019060200180831161145f57829003601f168201915b50509250505060405180910390fd5b506000808373ffffffffffffffffffffffffffffffffffffffff1673ffffffffffffffffffffffffffffffffffffffff168152602001908152602001600020600001549050919050565b60006114e282600061187f565b9050919050565b8173ffffffffffffffffffffffffffffffffffffffff16600160009054906101000a900473ffffffffffffffffffffffffffffffffffffffff1673ffffffffffffffffffffffffffffffffffffffff16146002901515611601576040517f08c379a000000000000000000000000000000000000000000000000000000000815260040180806020018281038252838181546001816001161561010002031660029004815260200191508054600181600116156101000203166002900480156115f25780601f106115c7576101008083540402835291602001916115f2565b820191906000526020600020905b8154815290600101906020018083116115d557829003601f168201915b50509250505060405180910390fd5b506000808273ffffffffffffffffffffffffffffffffffffffff1673ffffffffffffffffffffffffffffffffffffffff1681526020019081526020016000206000808201600090556001820160006101000a81549060ff02191690556002820160009055600382016000905560048201600090556005820160006101000a81549060ff0219169055600682016000905560078201600090556008820160009055600982016000905550505050565b60006020528060005260406000206000915090508060000154908060010160009054906101000a900460ff16908060020154908060030154908060040154908060050160009054906101000a900460ff1690806006015490806007015490806008015490806009015490508a565b60008060008373ffffffffffffffffffffffffffffffffffffffff1673ffffffffffffffffffffffffffffffffffffffff16815260200190815260200160002060010160009054906101000a900460ff166003901515611835576040517f08c379a000000000000000000000000000000000000000000000000000000000815260040180806020018281038252838181546001816001161561010002031660029004815260200191508054600181600116156101000203166002900480156118265780601f106117fb57610100808354040283529160200191611826565b820191906000526020600020905b81548152906001019060200180831161180957829003601f168201915b50509250505060405180910390fd5b506000808373ffffffffffffffffffffffffffffffffffffffff1673ffffffffffffffffffffffffffffffffffffffff168152602001908152602001600020600601549050919050565b60008060008473ffffffffffffffffffffffffffffffffffffffff1673ffffffffffffffffffffffffffffffffffffffff16815260200190815260200160002060010160009054906101000a900460ff166003901515611997576040517f08c379a000000000000000000000000000000000000000000000000000000000815260040180806020018281038252838181546001816001161561010002031660029004815260200191508054600181600116156101000203166002900480156119885780601f1061195d57610100808354040283529160200191611988565b820191906000526020600020905b81548152906001019060200180831161196b57829003601f168201915b50509250505060405180910390fd5b5060028214156119ea576000808473ffffffffffffffffffffffffffffffffffffffff1673ffffffffffffffffffffffffffffffffffffffff168152602001908152602001600020600401549050611a81565b6001821415611a3c576000808473ffffffffffffffffffffffffffffffffffffffff1673ffffffffffffffffffffffffffffffffffffffff168152602001908152602001600020600301549050611a81565b6000808473ffffffffffffffffffffffffffffffffffffffff1673ffffffffffffffffffffffffffffffffffffffff1681526020019081526020016000206002015490505b929150505600a165627a7a72305820573b9f34a8c9c3dea76bf46c930ec87c11b60fcadbb603f989f35b3938b16d230029",
  "source": "pragma solidity ^0.4.24;\n\ncontract Bookshelf {\n    struct Reader {\n        uint bookId;\n        bool hasBook;\n        uint nowKeepingDays;\n        uint mostKeepingDays;\n        uint spendDays;\n        bool sellerCheck;\n        uint getMoney;\n        uint beginTime;\n        uint lastReadTime;\n        uint paragraph;\n    }\n\n    mapping(address => Reader) public Readers;\n    address internal owner;\n\n\n    string RightWarn = \"This bookshelf is not yours that you have no right to do that\";\n    string NoBookWarn = \"You don't have a book.\";\n\n    constructor() public {\n        owner = msg.sender;\n    }\n\n    function putAbookIn(address own, address reader, uint bookId) public {\n        require(owner == own, RightWarn);\n        Readers[reader].bookId = bookId;\n        Readers[reader].nowKeepingDays = 0;\n        Readers[reader].hasBook = true;\n        Readers[reader].mostKeepingDays = 0;\n        Readers[reader].spendDays = 0;\n        Readers[reader].getMoney = 0;\n        Readers[reader].beginTime = now;\n        Readers[reader].lastReadTime = now;\n        Readers[reader].paragraph = 1;\n    }\n\n    function clearbookOfReader(address own, address reader) public {\n        require(owner == own, RightWarn);\n        delete Readers[reader];\n    }\n\n    function Reading(address reader) public returns (uint) {\n        require(Readers[reader].hasBook, NoBookWarn);\n        Readers[reader].spendDays = (now - Readers[reader].beginTime) / 86400 + 1;\n        if (Readers[reader].spendDays == 1) {\n            Readers[reader].mostKeepingDays = 1;\n            Readers[reader].nowKeepingDays = 1;\n        }\n        uint interval = (now - Readers[reader].lastReadTime) / 86400;\n        if (interval < 1) {\n            return Readers[reader].paragraph;\n        } else if (interval < 2) {\n            Readers[reader].nowKeepingDays += 1;\n            if (Readers[reader].nowKeepingDays > Readers[reader].mostKeepingDays) {\n                Readers[reader].mostKeepingDays = Readers[reader].nowKeepingDays;\n            }\n        } else {\n            Readers[reader].nowKeepingDays = 1;\n        }\n        Readers[reader].lastReadTime = now;\n        Readers[reader].paragraph += 1;\n        return Readers[reader].paragraph;\n    }\n\n    function GetOwnBookName(address reader) public view returns (uint) {\n        require(Readers[reader].hasBook, NoBookWarn);\n        return Readers[reader].bookId;\n    }\n\n    function GetTheNowKeepDays(address reader) public view returns (uint) {\n        return GetTheDays(reader, 0);\n    }\n\n    function GetTheMostKeepDays(address reader) public view returns (uint) {\n        return GetTheDays(reader, 1);\n    }\n\n    function GetAlldaysSpent(address reader) public returns (uint) {\n        require(Readers[reader].hasBook, NoBookWarn);\n        Readers[reader].spendDays = (now - Readers[reader].beginTime) / 86400 + 1;\n        return GetTheDays(reader, 2);\n    }\n\n    function GetTheDays(address reader, uint dayType) internal view returns (uint) {\n        require(Readers[reader].hasBook, NoBookWarn);\n        if (dayType == 2) {\n            return Readers[reader].spendDays;\n        } else if (dayType == 1) {\n            return Readers[reader].mostKeepingDays;\n        } else {\n            return Readers[reader].nowKeepingDays;\n        }\n    }\n\n    function CheckTheShelf(address own, address reader, uint money) public {\n        require(owner == own, RightWarn);\n        Readers[reader].sellerCheck = true;\n        Readers[reader].getMoney = money;\n    }\n\n    function BeCheckedOrNot(address reader) public view returns (bool) {\n        require(Readers[reader].hasBook, NoBookWarn);\n        return Readers[reader].sellerCheck;\n    }\n\n    function CheckTheMoneyNowCanGet(address reader) public view returns (uint) {\n        require(Readers[reader].hasBook, NoBookWarn);\n        return Readers[reader].getMoney;\n    }\n}\n",
  "sourcePath": "C:\\DownloadSoftware\\LearningMaterials\\blockchain\\finalProjectv2\\test\\contracts\\Bookshelf.sol",
  "compiler": {
    "name": "solc",
    "version": "0.4.24+commit.e67f0147.Emscripten.clang"
  },
  "schemaVersion": "2.0.1",
  "updatedAt": "2018-12-29T12:41:53.743Z"
}