{
  "contractName": "RlreadStore",
  "abi": [
    {
      "constant": true,
      "inputs": [],
      "name": "unlockAmount",
      "outputs": [
        {
          "name": "",
          "type": "uint256"
        }
      ],
      "payable": false,
      "stateMutability": "view",
      "type": "function"
    },
    {
      "constant": true,
      "inputs": [
        {
          "name": "",
          "type": "uint256"
        }
      ],
      "name": "books",
      "outputs": [
        {
          "name": "",
          "type": "uint256"
        }
      ],
      "payable": false,
      "stateMutability": "view",
      "type": "function"
    },
    {
      "constant": true,
      "inputs": [
        {
          "name": "",
          "type": "uint256"
        }
      ],
      "name": "book_price",
      "outputs": [
        {
          "name": "",
          "type": "uint256"
        }
      ],
      "payable": false,
      "stateMutability": "view",
      "type": "function"
    },
    {
      "constant": true,
      "inputs": [],
      "name": "bookshelf",
      "outputs": [
        {
          "name": "",
          "type": "address"
        }
      ],
      "payable": false,
      "stateMutability": "view",
      "type": "function"
    },
    {
      "constant": true,
      "inputs": [
        {
          "name": "",
          "type": "uint256"
        }
      ],
      "name": "reader_addresses",
      "outputs": [
        {
          "name": "",
          "type": "address"
        }
      ],
      "payable": false,
      "stateMutability": "view",
      "type": "function"
    },
    {
      "constant": true,
      "inputs": [
        {
          "name": "",
          "type": "address"
        }
      ],
      "name": "Readers",
      "outputs": [
        {
          "name": "addr",
          "type": "address"
        },
        {
          "name": "enter",
          "type": "bool"
        },
        {
          "name": "has_books",
          "type": "uint256"
        }
      ],
      "payable": false,
      "stateMutability": "view",
      "type": "function"
    },
    {
      "constant": true,
      "inputs": [],
      "name": "lockAmount",
      "outputs": [
        {
          "name": "",
          "type": "uint256"
        }
      ],
      "payable": false,
      "stateMutability": "view",
      "type": "function"
    },
    {
      "inputs": [],
      "payable": false,
      "stateMutability": "nonpayable",
      "type": "constructor"
    },
    {
      "constant": true,
      "inputs": [],
      "name": "getSeller",
      "outputs": [
        {
          "name": "",
          "type": "address"
        }
      ],
      "payable": false,
      "stateMutability": "view",
      "type": "function"
    },
    {
      "constant": false,
      "inputs": [],
      "name": "EnterBookshop",
      "outputs": [],
      "payable": false,
      "stateMutability": "nonpayable",
      "type": "function"
    },
    {
      "constant": false,
      "inputs": [],
      "name": "LeaveBookshop",
      "outputs": [],
      "payable": false,
      "stateMutability": "nonpayable",
      "type": "function"
    },
    {
      "constant": true,
      "inputs": [],
      "name": "ListBooks",
      "outputs": [
        {
          "name": "",
          "type": "uint256[]"
        }
      ],
      "payable": false,
      "stateMutability": "view",
      "type": "function"
    },
    {
      "constant": true,
      "inputs": [],
      "name": "getBooksoldCount",
      "outputs": [
        {
          "name": "",
          "type": "uint256"
        }
      ],
      "payable": false,
      "stateMutability": "view",
      "type": "function"
    },
    {
      "constant": true,
      "inputs": [
        {
          "name": "bookId",
          "type": "uint256"
        }
      ],
      "name": "GetThePriceofTheBook",
      "outputs": [
        {
          "name": "",
          "type": "uint256"
        }
      ],
      "payable": false,
      "stateMutability": "view",
      "type": "function"
    },
    {
      "constant": false,
      "inputs": [
        {
          "name": "bookId",
          "type": "uint256"
        }
      ],
      "name": "BuyTheBook",
      "outputs": [
        {
          "name": "",
          "type": "uint256"
        }
      ],
      "payable": true,
      "stateMutability": "payable",
      "type": "function"
    },
    {
      "constant": false,
      "inputs": [
        {
          "name": "_bookshelf",
          "type": "address"
        }
      ],
      "name": "SetBookshelf",
      "outputs": [],
      "payable": false,
      "stateMutability": "nonpayable",
      "type": "function"
    },
    {
      "constant": false,
      "inputs": [
        {
          "name": "bookId",
          "type": "uint256"
        }
      ],
      "name": "ReaderGetMoney",
      "outputs": [
        {
          "name": "",
          "type": "uint256"
        }
      ],
      "payable": false,
      "stateMutability": "nonpayable",
      "type": "function"
    },
    {
      "constant": false,
      "inputs": [],
      "name": "SellerGetMoney",
      "outputs": [
        {
          "name": "",
          "type": "uint256"
        }
      ],
      "payable": false,
      "stateMutability": "nonpayable",
      "type": "function"
    }
  ],
  "bytecode": "0x608060405261010060405190810160405280600160ff168152602001600260ff168152602001600360ff168152602001600460ff168152602001600560ff168152602001600660ff168152602001600760ff168152602001600860ff168152506001906008620000719291906200022e565b50606060405190810160405280602781526020017f796f7520686176656e277420656e7465726564207468697320626f6f6b73746f81526020017f726520796574210000000000000000000000000000000000000000000000000081525060029080519060200190620000e692919062000285565b50348015620000f457600080fd5b50336000806101000a81548173ffffffffffffffffffffffffffffffffffffffff021916908373ffffffffffffffffffffffffffffffffffffffff1602179055506200014e62000154640100000000026401000000009004565b62000334565b612710600860006001815260200190815260200160002081905550614e20600860006002815260200190815260200160002081905550617530600860006003815260200190815260200160002081905550617530600860006004815260200190815260200160002081905550612710600860006005815260200190815260200160002081905550614e20600860006006815260200190815260200160002081905550617530600860006007815260200190815260200160002081905550617530600860006008815260200190815260200160002081905550565b82805482825590600052602060002090810192821562000272579160200282015b8281111562000271578251829060ff169055916020019190600101906200024f565b5b5090506200028191906200030c565b5090565b828054600181600116156101000203166002900490600052602060002090601f016020900481019282601f10620002c857805160ff1916838001178555620002f9565b82800160010185558215620002f9579182015b82811115620002f8578251825591602001919060010190620002db565b5b5090506200030891906200030c565b5090565b6200033191905b808211156200032d57600081600090555060010162000313565b5090565b90565b6120d880620003446000396000f3006080604052600436106100f1576000357c0100000000000000000000000000000000000000000000000000000000900463ffffffff1680631dcdf24d146100f6578063287e5521146101265780633a5f9cb914610151578063414689ff1461016857806345c3e2a91461019357806351463992146101be57806364ff8d2b146101fb57806368744046146102385780636aa9f1a61461027557806371433745146102b2578063a45d5061146102db578063b14d30b914610306578063c2f05ae014610331578063d77cb3fe1461036e578063d8df5dc1146103ad578063dbd0e1b6146103d8578063f72069f614610403575b600080fd5b610110600480360361010b9190810190611bc5565b61041a565b60405161011d9190611fbc565b60405180910390f35b34801561013257600080fd5b5061013b61060f565b6040516101489190611fbc565b60405180910390f35b34801561015d57600080fd5b50610166610bb8565b005b34801561017457600080fd5b5061017d610c96565b60405161018a9190611fbc565b60405180910390f35b34801561019f57600080fd5b506101a8610c9c565b6040516101b59190611efd565b60405180910390f35b3480156101ca57600080fd5b506101e560048036036101e09190810190611bc5565b610de1565b6040516101f29190611fbc565b60405180910390f35b34801561020757600080fd5b50610222600480360361021d9190810190611bc5565b610eeb565b60405161022f9190611fbc565b60405180910390f35b34801561024457600080fd5b5061025f600480360361025a9190810190611bc5565b611531565b60405161026c9190611fbc565b60405180910390f35b34801561028157600080fd5b5061029c60048036036102979190810190611bc5565b611554565b6040516102a99190611fbc565b60405180910390f35b3480156102be57600080fd5b506102d960048036036102d49190810190611b9c565b61156c565b005b3480156102e757600080fd5b506102f0611641565b6040516102fd9190611fbc565b60405180910390f35b34801561031257600080fd5b5061031b6116a9565b6040516103289190611f1f565b60405180910390f35b34801561033d57600080fd5b5061035860048036036103539190810190611bc5565b6116cf565b6040516103659190611e4b565b60405180910390f35b34801561037a57600080fd5b5061039560048036036103909190810190611b4a565b61170d565b6040516103a493929190611ec6565b60405180910390f35b3480156103b957600080fd5b506103c2611764565b6040516103cf9190611fbc565b60405180910390f35b3480156103e457600080fd5b506103ed61176a565b6040516103fa9190611e4b565b60405180910390f35b34801561040f57600080fd5b506104186117ee565b005b60008060009054906101000a900473ffffffffffffffffffffffffffffffffffffffff1673ffffffffffffffffffffffffffffffffffffffff163373ffffffffffffffffffffffffffffffffffffffff16141561047a576064905061060a565b34600360008282540192505081905550600560009054906101000a900473ffffffffffffffffffffffffffffffffffffffff1673ffffffffffffffffffffffffffffffffffffffff1663909744046000809054906101000a900473ffffffffffffffffffffffffffffffffffffffff1633856040518463ffffffff167c010000000000000000000000000000000000000000000000000000000002815260040161052693929190611e8f565b600060405180830381600087803b15801561054057600080fd5b505af1158015610554573d6000803e3d6000fd5b5050505081600760003373ffffffffffffffffffffffffffffffffffffffff1673ffffffffffffffffffffffffffffffffffffffff1681526020019081526020016000206001018190555060063390806001815401808255809150509060018203906000526020600020016000909192909190916101000a81548173ffffffffffffffffffffffffffffffffffffffff021916908373ffffffffffffffffffffffffffffffffffffffff1602179055505060c890505b919050565b6000806000806000806000809054906101000a900473ffffffffffffffffffffffffffffffffffffffff1673ffffffffffffffffffffffffffffffffffffffff163373ffffffffffffffffffffffffffffffffffffffff161415156106a9576040517f08c379a00000000000000000000000000000000000000000000000000000000081526004016106a090611f5c565b60405180910390fd5b600094505b600680549050851015610b36576050600560009054906101000a900473ffffffffffffffffffffffffffffffffffffffff1673ffffffffffffffffffffffffffffffffffffffff16638665402360068881548110151561070a57fe5b9060005260206000200160009054906101000a900473ffffffffffffffffffffffffffffffffffffffff166040518263ffffffff167c010000000000000000000000000000000000000000000000000000000002815260040161076d9190611e4b565b602060405180830381600087803b15801561078757600080fd5b505af115801561079b573d6000803e3d6000fd5b505050506040513d601f19601f820116820180604052506107bf9190810190611bee565b1415610b2b57600560009054906101000a900473ffffffffffffffffffffffffffffffffffffffff1673ffffffffffffffffffffffffffffffffffffffff166358f0562b60068781548110151561081257fe5b9060005260206000200160009054906101000a900473ffffffffffffffffffffffffffffffffffffffff166040518263ffffffff167c01000000000000000000000000000000000000000000000000000000000281526004016108759190611e4b565b602060405180830381600087803b15801561088f57600080fd5b505af11580156108a3573d6000803e3d6000fd5b505050506040513d601f19601f820116820180604052506108c79190810190611bee565b9350600560009054906101000a900473ffffffffffffffffffffffffffffffffffffffff1673ffffffffffffffffffffffffffffffffffffffff1663c01e15cd60068781548110151561091657fe5b9060005260206000200160009054906101000a900473ffffffffffffffffffffffffffffffffffffffff166040518263ffffffff167c01000000000000000000000000000000000000000000000000000000000281526004016109799190611e4b565b602060405180830381600087803b15801561099357600080fd5b505af11580156109a7573d6000803e3d6000fd5b505050506040513d601f19601f820116820180604052506109cb9190810190611bee565b92506109d7848461184b565b9150600560009054906101000a900473ffffffffffffffffffffffffffffffffffffffff1673ffffffffffffffffffffffffffffffffffffffff1663a1197ad96000809054906101000a900473ffffffffffffffffffffffffffffffffffffffff16600688815481101515610a4857fe5b9060005260206000200160009054906101000a900473ffffffffffffffffffffffffffffffffffffffff16856040518463ffffffff167c0100000000000000000000000000000000000000000000000000000000028152600401610aae93929190611e8f565b600060405180830381600087803b158015610ac857600080fd5b505af1158015610adc573d6000803e3d6000fd5b5050505081600860008581526020019081526020016000205403600460008282540192505081905550816008600085815260200190815260200160002054036003600082825403925050819055505b8460010194506106ae565b60045490506000809054906101000a900473ffffffffffffffffffffffffffffffffffffffff1673ffffffffffffffffffffffffffffffffffffffff166108fc6004549081150290604051600060405180830381858888f19350505050158015610ba4573d6000803e3d6000fd5b506000600481905550809550505050505090565b33600760003373ffffffffffffffffffffffffffffffffffffffff1673ffffffffffffffffffffffffffffffffffffffff16815260200190815260200160002060000160006101000a81548173ffffffffffffffffffffffffffffffffffffffff021916908373ffffffffffffffffffffffffffffffffffffffff1602179055506001600760003373ffffffffffffffffffffffffffffffffffffffff1673ffffffffffffffffffffffffffffffffffffffff16815260200190815260200160002060000160146101000a81548160ff021916908315150217905550565b60045481565b60606000809054906101000a900473ffffffffffffffffffffffffffffffffffffffff1673ffffffffffffffffffffffffffffffffffffffff163373ffffffffffffffffffffffffffffffffffffffff161480610d455750600760003373ffffffffffffffffffffffffffffffffffffffff1673ffffffffffffffffffffffffffffffffffffffff16815260200190815260200160002060000160149054906101000a900460ff165b6002901515610d8a576040517f08c379a0000000000000000000000000000000000000000000000000000000008152600401610d819190611f3a565b60405180910390fd5b506001805480602002602001604051908101604052809291908181526020018280548015610dd757602002820191906000526020600020905b815481526020019060010190808311610dc3575b5050505050905090565b60008060009054906101000a900473ffffffffffffffffffffffffffffffffffffffff1673ffffffffffffffffffffffffffffffffffffffff163373ffffffffffffffffffffffffffffffffffffffff161480610e8a5750600760003373ffffffffffffffffffffffffffffffffffffffff1673ffffffffffffffffffffffffffffffffffffffff16815260200190815260200160002060000160149054906101000a900460ff165b6002901515610ecf576040517f08c379a0000000000000000000000000000000000000000000000000000000008152600401610ec69190611f3a565b60405180910390fd5b5060086000838152602001908152602001600020549050919050565b600080600080600760003373ffffffffffffffffffffffffffffffffffffffff1673ffffffffffffffffffffffffffffffffffffffff16815260200190815260200160002060000160149054906101000a900460ff166002901515610f86576040517f08c379a0000000000000000000000000000000000000000000000000000000008152600401610f7d9190611f3a565b60405180910390fd5b506000809054906101000a900473ffffffffffffffffffffffffffffffffffffffff1673ffffffffffffffffffffffffffffffffffffffff163373ffffffffffffffffffffffffffffffffffffffff1614151515611019576040517f08c379a000000000000000000000000000000000000000000000000000000000815260040161101090611f9c565b60405180910390fd5b6050600560009054906101000a900473ffffffffffffffffffffffffffffffffffffffff1673ffffffffffffffffffffffffffffffffffffffff166386654023336040518263ffffffff167c01000000000000000000000000000000000000000000000000000000000281526004016110929190611e4b565b602060405180830381600087803b1580156110ac57600080fd5b505af11580156110c0573d6000803e3d6000fd5b505050506040513d601f19601f820116820180604052506110e49190810190611bee565b10156110f35760659350611529565b600560009054906101000a900473ffffffffffffffffffffffffffffffffffffffff1673ffffffffffffffffffffffffffffffffffffffff16635c84651a336040518263ffffffff167c010000000000000000000000000000000000000000000000000000000002815260040161116a9190611e4b565b602060405180830381600087803b15801561118457600080fd5b505af1158015611198573d6000803e3d6000fd5b505050506040513d601f19601f820116820180604052506111bc9190810190611b73565b156112e857600560009054906101000a900473ffffffffffffffffffffffffffffffffffffffff1673ffffffffffffffffffffffffffffffffffffffff1663d94af6dc336040518263ffffffff167c01000000000000000000000000000000000000000000000000000000000281526004016112389190611e4b565b602060405180830381600087803b15801561125257600080fd5b505af1158015611266573d6000803e3d6000fd5b505050506040513d601f19601f8201168201806040525061128a9190810190611bee565b92503373ffffffffffffffffffffffffffffffffffffffff166108fc849081150290604051600060405180830381858888f193505050501580156112d2573d6000803e3d6000fd5b508260036000828254039250508190555061144f565b600560009054906101000a900473ffffffffffffffffffffffffffffffffffffffff1673ffffffffffffffffffffffffffffffffffffffff166358f0562b336040518263ffffffff167c010000000000000000000000000000000000000000000000000000000002815260040161135f9190611e4b565b602060405180830381600087803b15801561137957600080fd5b505af115801561138d573d6000803e3d6000fd5b505050506040513d601f19601f820116820180604052506113b19190810190611bee565b91506113bd828661184b565b90503373ffffffffffffffffffffffffffffffffffffffff166108fc829081150290604051600060405180830381858888f19350505050158015611405573d6000803e3d6000fd5b508060086000878152602001908152602001600020540360046000828254019250508190555060086000868152602001908152602001600020546003600082825403925050819055505b600560009054906101000a900473ffffffffffffffffffffffffffffffffffffffff1673ffffffffffffffffffffffffffffffffffffffff1663cebb246f6000809054906101000a900473ffffffffffffffffffffffffffffffffffffffff16336040518363ffffffff167c01000000000000000000000000000000000000000000000000000000000281526004016114e9929190611e66565b600060405180830381600087803b15801561150357600080fd5b505af1158015611517573d6000803e3d6000fd5b5050505061152433611877565b60c893505b505050919050565b60018181548110151561154057fe5b906000526020600020016000915090505481565b60086020528060005260406000206000915090505481565b6000809054906101000a900473ffffffffffffffffffffffffffffffffffffffff1673ffffffffffffffffffffffffffffffffffffffff163373ffffffffffffffffffffffffffffffffffffffff161415156115fd576040517f08c379a00000000000000000000000000000000000000000000000000000000081526004016115f490611f7c565b60405180910390fd5b80600560006101000a81548173ffffffffffffffffffffffffffffffffffffffff021916908373ffffffffffffffffffffffffffffffffffffffff16021790555050565b60008060009054906101000a900473ffffffffffffffffffffffffffffffffffffffff1673ffffffffffffffffffffffffffffffffffffffff163373ffffffffffffffffffffffffffffffffffffffff1614151561169e57600080fd5b600680549050905090565b600560009054906101000a900473ffffffffffffffffffffffffffffffffffffffff1681565b6006818154811015156116de57fe5b906000526020600020016000915054906101000a900473ffffffffffffffffffffffffffffffffffffffff1681565b60076020528060005260406000206000915090508060000160009054906101000a900473ffffffffffffffffffffffffffffffffffffffff16908060000160149054906101000a900460ff16908060010154905083565b60035481565b60008060009054906101000a900473ffffffffffffffffffffffffffffffffffffffff1673ffffffffffffffffffffffffffffffffffffffff163373ffffffffffffffffffffffffffffffffffffffff161415156117c757600080fd5b6000809054906101000a900473ffffffffffffffffffffffffffffffffffffffff16905090565b6000600760003373ffffffffffffffffffffffffffffffffffffffff1673ffffffffffffffffffffffffffffffffffffffff16815260200190815260200160002060000160146101000a81548160ff021916908315150217905550565b600060506008600084815260200190815260200160002054840281151561186e57fe5b04905092915050565b6000806000915060068054905090505b8082101561190c578273ffffffffffffffffffffffffffffffffffffffff166006838154811015156118b557fe5b9060005260206000200160009054906101000a900473ffffffffffffffffffffffffffffffffffffffff1673ffffffffffffffffffffffffffffffffffffffff1614156119015761190c565b816001019150611887565b5b600181038210156119b75760066001830181548110151561192a57fe5b9060005260206000200160009054906101000a900473ffffffffffffffffffffffffffffffffffffffff1660068381548110151561196457fe5b9060005260206000200160006101000a81548173ffffffffffffffffffffffffffffffffffffffff021916908373ffffffffffffffffffffffffffffffffffffffff16021790555081600101915061190d565b6000600760006006600185038154811015156119cf57fe5b9060005260206000200160009054906101000a900473ffffffffffffffffffffffffffffffffffffffff1673ffffffffffffffffffffffffffffffffffffffff1673ffffffffffffffffffffffffffffffffffffffff16815260200190815260200160002060010181905550600660018203815481101515611a4d57fe5b9060005260206000200160006101000a81549073ffffffffffffffffffffffffffffffffffffffff02191690556006805480919060019003611a8f9190611a95565b50505050565b815481835581811115611abc57818360005260206000209182019101611abb9190611ac1565b5b505050565b611ae391905b80821115611adf576000816000905550600101611ac7565b5090565b90565b6000611af28235612044565b905092915050565b6000611b068251612064565b905092915050565b6000611b1a8235612070565b905092915050565b6000611b2e8235612082565b905092915050565b6000611b428251612082565b905092915050565b600060208284031215611b5c57600080fd5b6000611b6a84828501611ae6565b91505092915050565b600060208284031215611b8557600080fd5b6000611b9384828501611afa565b91505092915050565b600060208284031215611bae57600080fd5b6000611bbc84828501611b0e565b91505092915050565b600060208284031215611bd757600080fd5b6000611be584828501611b22565b91505092915050565b600060208284031215611c0057600080fd5b6000611c0e84828501611b36565b91505092915050565b611c208161200e565b82525050565b6000611c3182611ff6565b808452602084019350611c4383611fd7565b60005b82811015611c7557611c59868351611e3c565b611c6282612001565b9150602086019550600181019050611c46565b50849250505092915050565b611c8a8161202e565b82525050565b611c998161208c565b82525050565b600081546001811660008114611cbc5760018114611cdc57611d1d565b607f600283041680865260ff198316602087015260408601935050611d1d565b60028204808652602086019550611cf285611fe4565b60005b82811015611d1457815481890152600182019150602081019050611cf5565b80880195505050505b505092915050565b6000602482527f596f7520646f6e277420686176652074686520726967687420746f20646f207460208301527f6861742e000000000000000000000000000000000000000000000000000000006040830152606082019050919050565b6000602382527f596f7520646f6e277420686176652074686520726967687420746f20646f207460208301527f68617400000000000000000000000000000000000000000000000000000000006040830152606082019050919050565b6000602882527f426f73732c20796f7520617265207468652073656c6c6572206e6f742074686560208301527f207265616465722e0000000000000000000000000000000000000000000000006040830152606082019050919050565b611e458161203a565b82525050565b6000602082019050611e606000830184611c17565b92915050565b6000604082019050611e7b6000830185611c17565b611e886020830184611c17565b9392505050565b6000606082019050611ea46000830186611c17565b611eb16020830185611c17565b611ebe6040830184611e3c565b949350505050565b6000606082019050611edb6000830186611c17565b611ee86020830185611c81565b611ef56040830184611e3c565b949350505050565b60006020820190508181036000830152611f178184611c26565b905092915050565b6000602082019050611f346000830184611c90565b92915050565b60006020820190508181036000830152611f548184611c9f565b905092915050565b60006020820190508181036000830152611f7581611d25565b9050919050565b60006020820190508181036000830152611f9581611d82565b9050919050565b60006020820190508181036000830152611fb581611ddf565b9050919050565b6000602082019050611fd16000830184611e3c565b92915050565b6000602082019050919050565b60008160005260206000209050919050565b600081519050919050565b6000602082019050919050565b600073ffffffffffffffffffffffffffffffffffffffff82169050919050565b60008115159050919050565b6000819050919050565b600073ffffffffffffffffffffffffffffffffffffffff82169050919050565b60008115159050919050565b600061207b8261200e565b9050919050565b6000819050919050565b60006120978261200e565b90509190505600a265627a7a723058205ee9cb1d800ba7506f0af21746ee559d367d28e920092609caf9d18adddf7a0d6c6578706572696d656e74616cf50037",
  "source": "pragma solidity ^0.4.24;\npragma experimental ABIEncoderV2;\n\nimport \"./Bookshelf.sol\";\n\ncontract RlreadStore {\n\n    struct Reader {\n        address addr;\n        bool enter;\n        uint has_books;\n    }\n\n    //\n    address internal seller;\n    uint[] public books = [1,2,3,4,5,6,7,8];\n    string  notEnterWarn = \"you haven't entered this bookstore yet!\";\n\n    //\n    uint public lockAmount;\n\n    //\n    uint public unlockAmount;\n\n    //\n    Bookshelf public bookshelf;\n    address[] public reader_addresses;\n    //\n    mapping(address => Reader) public Readers;\n    mapping(uint => uint) public book_price;\n\n    constructor() public {\n        seller = msg.sender;\n        InitailThePriceOfBooks();\n    }\n\n    function getSeller() public view returns (address) {\n      require(msg.sender == seller);\n      return seller;\n    }\n\n    function InitailThePriceOfBooks() internal {\n        book_price[1] = 10000;\n        book_price[2] = 20000;\n        book_price[3] = 30000;\n        book_price[4] = 30000;\n        book_price[5] = 10000;\n        book_price[6] = 20000;\n        book_price[7] = 30000;\n        book_price[8] = 30000;\n    }\n\n    function EnterBookshop() public {\n        Readers[msg.sender].addr = msg.sender;\n        Readers[msg.sender].enter = true;\n    }\n\n    function LeaveBookshop() public {\n        Readers[msg.sender].enter = false;\n    }\n\n    function ListBooks() public view returns (uint[]) {\n        // if (!Readers[msg.sender].enter) {\n        //     revert(notEnterWarn);\n        // }\n        require(msg.sender == seller || Readers[msg.sender].enter, notEnterWarn);\n        return books;\n    }\n\n    function getBooksoldCount() public view returns (uint) {\n      require(msg.sender == seller);\n      return reader_addresses.length;\n    }\n\n    function GetThePriceofTheBook(uint bookId) public view returns (uint) {\n        require(msg.sender == seller || Readers[msg.sender].enter, notEnterWarn);\n        return book_price[bookId];\n    }\n\n    /* 100: \"Boss, the books are all yours.\"\n       200: \"You have bought this book successfully!\n    */\n    function BuyTheBook(uint bookId) public payable returns (uint)  {\n        if (msg.sender == seller)\n            return 100;\n        lockAmount += msg.value;\n        bookshelf.putAbookIn(seller, msg.sender, bookId);\n        Readers[msg.sender].has_books = bookId;\n        reader_addresses.push(msg.sender);\n        return 200;\n    }\n\n    function SetBookshelf(Bookshelf _bookshelf) public {\n        require(msg.sender == seller, \"You don't have the right to do that\");\n        bookshelf = _bookshelf;\n    }\n\n    function deleteReaderByAddress(address reader) internal {\n        uint i = 0;\n        uint length = reader_addresses.length;\n        for ( ; i < length; ++i) {\n            if (reader_addresses[i] == reader)\n                break;\n        }\n        for ( ; i < length - 1; ++i) {\n            reader_addresses[i] = reader_addresses[i + 1];\n        }\n        Readers[reader_addresses[length - 1]].has_books = 0;\n        delete reader_addresses[length - 1];\n        reader_addresses.length--;\n    }\n\n    function calculateTheMoneyReaderCanGet(uint mostKeepDays, uint bookId) internal view returns (uint) {\n        return mostKeepDays * book_price[bookId] / 80;\n    }\n\n    /* 101: \"The days spent in this book is less than 80 days so that you can't get the money.\"\n       200: \"you have taken some money back based on your most keeping days to read this book!\"\n    */\n    function ReaderGetMoney(uint bookId) public returns (uint) {\n        require(Readers[msg.sender].enter, notEnterWarn);\n        require(msg.sender != seller, \"Boss, you are the seller not the reader.\");\n        if (bookshelf.GetAlldaysSpent(msg.sender) < 80) {\n            return 101;\n        } else if (bookshelf.BeCheckedOrNot(msg.sender)) {\n            uint money = bookshelf.CheckTheMoneyNowCanGet(msg.sender);\n            msg.sender.transfer(money);\n            lockAmount -= money;\n        } else {\n            uint mostKeepDays = bookshelf.GetTheMostKeepDays(msg.sender);\n            uint moneyReaderCanGet = calculateTheMoneyReaderCanGet(mostKeepDays, bookId);\n            msg.sender.transfer(moneyReaderCanGet);\n            unlockAmount += book_price[bookId] - moneyReaderCanGet;\n            lockAmount -= book_price[bookId];\n        }\n        //\n        bookshelf.clearbookOfReader(seller, msg.sender);\n        deleteReaderByAddress(msg.sender);\n        return 200;\n    }\n\n    function SellerGetMoney() public returns (uint) {\n        require(msg.sender == seller, \"You don't have the right to do that.\");\n        for (uint i = 0; i < reader_addresses.length; ++i) {\n            if (bookshelf.GetAlldaysSpent(reader_addresses[i]) == 80) {\n                uint mostKeepDays = bookshelf.GetTheMostKeepDays(reader_addresses[i]);\n                uint bookId = bookshelf.GetOwnBookName(reader_addresses[i]);\n                uint moneyReaderCanGet = calculateTheMoneyReaderCanGet(mostKeepDays, bookId);\n                bookshelf.CheckTheShelf(seller, reader_addresses[i], moneyReaderCanGet);\n                unlockAmount += book_price[bookId] - moneyReaderCanGet;\n                lockAmount -= book_price[bookId] - moneyReaderCanGet;\n            }\n        }\n        uint get = unlockAmount;\n        seller.transfer(unlockAmount);\n        unlockAmount = 0;\n        return get;\n    }\n\n}\n",
  "sourcePath": "C:\\DownloadSoftware\\LearningMaterials\\blockchain\\finalProjectv2\\test\\contracts\\RlreadStore.sol",
  "compiler": {
    "name": "solc",
    "version": "0.4.24+commit.e67f0147.Emscripten.clang"
  },
  "schemaVersion": "2.0.1",
  "updatedAt": "2018-12-29T12:41:53.767Z"
}