{
  "contractName": "RlreadStore",
  "abi": [
    {
      "inputs": [],
      "payable": false,
      "stateMutability": "nonpayable",
      "type": "constructor"
    },
    {
      "constant": true,
      "inputs": [],
      "name": "getSeller",
      "outputs": [
        {
          "name": "",
          "type": "address"
        }
      ],
      "payable": false,
      "stateMutability": "view",
      "type": "function"
    },
    {
      "constant": false,
      "inputs": [],
      "name": "EnterBookshop",
      "outputs": [],
      "payable": false,
      "stateMutability": "nonpayable",
      "type": "function"
    },
    {
      "constant": false,
      "inputs": [],
      "name": "LeaveBookshop",
      "outputs": [],
      "payable": false,
      "stateMutability": "nonpayable",
      "type": "function"
    },
    {
      "constant": true,
      "inputs": [],
      "name": "ListBooks",
      "outputs": [
        {
          "name": "",
          "type": "string[]"
        }
      ],
      "payable": false,
      "stateMutability": "view",
      "type": "function"
    },
    {
      "constant": true,
      "inputs": [
        {
          "name": "bookname",
          "type": "string"
        }
      ],
      "name": "GetThePriceofTheBook",
      "outputs": [
        {
          "name": "",
          "type": "uint256"
        }
      ],
      "payable": false,
      "stateMutability": "view",
      "type": "function"
    },
    {
      "constant": false,
      "inputs": [
        {
          "name": "bookname",
          "type": "string"
        }
      ],
      "name": "BuyTheBook",
      "outputs": [
        {
          "name": "",
          "type": "string"
        }
      ],
      "payable": true,
      "stateMutability": "payable",
      "type": "function"
    },
    {
      "constant": false,
      "inputs": [
        {
          "name": "_bookshelf",
          "type": "address"
        }
      ],
      "name": "SetBookshelf",
      "outputs": [],
      "payable": false,
      "stateMutability": "nonpayable",
      "type": "function"
    },
    {
      "constant": false,
      "inputs": [
        {
          "name": "bookname",
          "type": "string"
        }
      ],
      "name": "ReaderGetMoney",
      "outputs": [
        {
          "name": "",
          "type": "string"
        }
      ],
      "payable": false,
      "stateMutability": "nonpayable",
      "type": "function"
    },
    {
      "constant": false,
      "inputs": [],
      "name": "SellerGetMoney",
      "outputs": [
        {
          "name": "",
          "type": "string"
        }
      ],
      "payable": false,
      "stateMutability": "nonpayable",
      "type": "function"
    }
  ],
  "bytecode": "0x60806040526080604051908101604052806040805190810160405280600c81526020017f486172727920506f74746572000000000000000000000000000000000000000081525081526020016040805190810160405280600681526020017f49736c616e64000000000000000000000000000000000000000000000000000081525081526020016040805190810160405280601081526020017f54686520736861646f772074686965660000000000000000000000000000000081525081526020016040805190810160405280600f81526020017f546865204b6974652052756e6e6572000000000000000000000000000000000081525081525060019060046200010c92919062000305565b50606060405190810160405280602781526020017f796f7520686176656e277420656e7465726564207468697320626f6f6b73746f81526020017f726520796574210000000000000000000000000000000000000000000000000081525060029080519060200190620001819291906200036c565b503480156200018f57600080fd5b50336000806101000a81548173ffffffffffffffffffffffffffffffffffffffff021916908373ffffffffffffffffffffffffffffffffffffffff160217905550620001e9620001ef640100000000026401000000009004565b6200051f565b612710600860405180807f486172727920506f747465720000000000000000000000000000000000000000815250600c019050908152602001604051809103902081905550614e20600860405180807f49736c616e6400000000000000000000000000000000000000000000000000008152506006019050908152602001604051809103902081905550617530600860405180807f54686520736861646f77207468696566000000000000000000000000000000008152506010019050908152602001604051809103902081905550617530600860405180807f546865204b6974652052756e6e65720000000000000000000000000000000000815250600f019050908152602001604051809103902081905550565b82805482825590600052602060002090810192821562000359579160200282015b828111156200035857825182908051906020019062000347929190620003f3565b509160200191906001019062000326565b5b5090506200036891906200047a565b5090565b828054600181600116156101000203166002900490600052602060002090601f016020900481019282601f10620003af57805160ff1916838001178555620003e0565b82800160010185558215620003e0579182015b82811115620003df578251825591602001919060010190620003c2565b5b509050620003ef9190620004ab565b5090565b828054600181600116156101000203166002900490600052602060002090601f016020900481019282601f106200043657805160ff191683800117855562000467565b8280016001018555821562000467579182015b828111156200046657825182559160200191906001019062000449565b5b509050620004769190620004ab565b5090565b620004a891905b80821115620004a457600081816200049a9190620004d3565b5060010162000481565b5090565b90565b620004d091905b80821115620004cc576000816000905550600101620004b2565b5090565b90565b50805460018160011615610100020316600290046000825580601f10620004fb57506200051c565b601f0160209004906000526020600020908101906200051b9190620004ab565b5b50565b61252e806200052f6000396000f300608060405260043610610099576000357c0100000000000000000000000000000000000000000000000000000000900463ffffffff168063287e55211461009e57806339d32535146100c95780633a5f9cb91461010657806345c3e2a91461011d5780637143374514610148578063b13c2f3f14610171578063dbd0e1b6146101ae578063ede76744146101d9578063f72069f614610209575b600080fd5b3480156100aa57600080fd5b506100b3610220565b6040516100c091906122aa565b60405180910390f35b3480156100d557600080fd5b506100f060048036036100eb9190810190611dfb565b6108d4565b6040516100fd91906122aa565b60405180910390f35b34801561011257600080fd5b5061011b6110cd565b005b34801561012957600080fd5b5061013261112a565b60405161013f9190612288565b60405180910390f35b34801561015457600080fd5b5061016f600480360361016a9190810190611dd2565b611300565b005b34801561017d57600080fd5b5061019860048036036101939190810190611dfb565b6113d5565b6040516101a5919061238e565b60405180910390f35b3480156101ba57600080fd5b506101c3611537565b6040516101d091906121cf565b60405180910390f35b6101f360048036036101ee9190810190611dfb565b6115bb565b60405161020091906122aa565b60405180910390f35b34801561021557600080fd5b5061021e6119f5565b005b6060600080606060008060009054906101000a900473ffffffffffffffffffffffffffffffffffffffff1673ffffffffffffffffffffffffffffffffffffffff163373ffffffffffffffffffffffffffffffffffffffff161415156102ba576040517f08c379a00000000000000000000000000000000000000000000000000000000081526004016102b19061232e565b60405180910390fd5b600093505b6006805490508410156107fc576050600560009054906101000a900473ffffffffffffffffffffffffffffffffffffffff1673ffffffffffffffffffffffffffffffffffffffff16638665402360068781548110151561031b57fe5b9060005260206000200160009054906101000a900473ffffffffffffffffffffffffffffffffffffffff166040518263ffffffff167c010000000000000000000000000000000000000000000000000000000002815260040161037e91906121cf565b602060405180830381600087803b15801561039857600080fd5b505af11580156103ac573d6000803e3d6000fd5b505050506040513d601f19601f820116820180604052506103d09190810190611e7d565b14156107f157600560009054906101000a900473ffffffffffffffffffffffffffffffffffffffff1673ffffffffffffffffffffffffffffffffffffffff166358f0562b60068681548110151561042357fe5b9060005260206000200160009054906101000a900473ffffffffffffffffffffffffffffffffffffffff166040518263ffffffff167c010000000000000000000000000000000000000000000000000000000002815260040161048691906121cf565b602060405180830381600087803b1580156104a057600080fd5b505af11580156104b4573d6000803e3d6000fd5b505050506040513d601f19601f820116820180604052506104d89190810190611e7d565b9250600560009054906101000a900473ffffffffffffffffffffffffffffffffffffffff1673ffffffffffffffffffffffffffffffffffffffff1663c01e15cd60068681548110151561052757fe5b9060005260206000200160009054906101000a900473ffffffffffffffffffffffffffffffffffffffff166040518263ffffffff167c010000000000000000000000000000000000000000000000000000000002815260040161058a91906121cf565b600060405180830381600087803b1580156105a457600080fd5b505af11580156105b8573d6000803e3d6000fd5b505050506040513d6000823e3d601f19601f820116820180604052506105e19190810190611e3c565b91506105ed8383611a52565b9050600560009054906101000a900473ffffffffffffffffffffffffffffffffffffffff1673ffffffffffffffffffffffffffffffffffffffff1663a1197ad96000809054906101000a900473ffffffffffffffffffffffffffffffffffffffff1660068781548110151561065e57fe5b9060005260206000200160009054906101000a900473ffffffffffffffffffffffffffffffffffffffff16846040518463ffffffff167c01000000000000000000000000000000000000000000000000000000000281526004016106c493929190612251565b600060405180830381600087803b1580156106de57600080fd5b505af11580156106f2573d6000803e3d6000fd5b50505050806008836040518082805190602001908083835b60208310151561072f578051825260208201915060208101905060208303925061070a565b6001836020036101000a03801982511681845116808217855250505050505090500191505090815260200160405180910390205403600460008282540192505081905550806008836040518082805190602001908083835b6020831015156107ac5780518252602082019150602081019050602083039250610787565b6001836020036101000a038019825116818451168082178552505050505050905001915050908152602001604051809103902054036003600082825403925050819055505b8360010193506102bf565b6000809054906101000a900473ffffffffffffffffffffffffffffffffffffffff1673ffffffffffffffffffffffffffffffffffffffff166108fc6004549081150290604051600060405180830381858888f19350505050158015610865573d6000803e3d6000fd5b506000600481905550606060405190810160405280602b81526020017f596f75206861766520676f7420616c6c20746865206d6f6e657920796f75206381526020017f616e20676574206e6f772e00000000000000000000000000000000000000000081525094505050505090565b60606000806000600760003373ffffffffffffffffffffffffffffffffffffffff1673ffffffffffffffffffffffffffffffffffffffff16815260200190815260200160002060000160149054906101000a900460ff166002901515610970576040517f08c379a000000000000000000000000000000000000000000000000000000000815260040161096791906122cc565b60405180910390fd5b506000809054906101000a900473ffffffffffffffffffffffffffffffffffffffff1673ffffffffffffffffffffffffffffffffffffffff163373ffffffffffffffffffffffffffffffffffffffff1614151515610a03576040517f08c379a00000000000000000000000000000000000000000000000000000000081526004016109fa9061236e565b60405180910390fd5b6050600560009054906101000a900473ffffffffffffffffffffffffffffffffffffffff1673ffffffffffffffffffffffffffffffffffffffff166386654023336040518263ffffffff167c0100000000000000000000000000000000000000000000000000000000028152600401610a7c91906121cf565b602060405180830381600087803b158015610a9657600080fd5b505af1158015610aaa573d6000803e3d6000fd5b505050506040513d601f19601f82011682018060405250610ace9190810190611e7d565b1015610b5e57608060405190810160405280605181526020017f5468652064617973207370656e7420696e207468697320626f6f6b206973206c81526020017f657373207468616e203830206461797320736f207468617420796f752063616e81526020017f27742067657420746865206d6f6e65792e00000000000000000000000000000081525093506110c5565b600560009054906101000a900473ffffffffffffffffffffffffffffffffffffffff1673ffffffffffffffffffffffffffffffffffffffff16635c84651a336040518263ffffffff167c0100000000000000000000000000000000000000000000000000000000028152600401610bd591906121cf565b602060405180830381600087803b158015610bef57600080fd5b505af1158015610c03573d6000803e3d6000fd5b505050506040513d601f19601f82011682018060405250610c279190810190611da9565b15610d5357600560009054906101000a900473ffffffffffffffffffffffffffffffffffffffff1673ffffffffffffffffffffffffffffffffffffffff1663d94af6dc336040518263ffffffff167c0100000000000000000000000000000000000000000000000000000000028152600401610ca391906121cf565b602060405180830381600087803b158015610cbd57600080fd5b505af1158015610cd1573d6000803e3d6000fd5b505050506040513d601f19601f82011682018060405250610cf59190810190611e7d565b92503373ffffffffffffffffffffffffffffffffffffffff166108fc849081150290604051600060405180830381858888f19350505050158015610d3d573d6000803e3d6000fd5b5082600360008282540392505081905550610f6a565b600560009054906101000a900473ffffffffffffffffffffffffffffffffffffffff1673ffffffffffffffffffffffffffffffffffffffff166358f0562b336040518263ffffffff167c0100000000000000000000000000000000000000000000000000000000028152600401610dca91906121cf565b602060405180830381600087803b158015610de457600080fd5b505af1158015610df8573d6000803e3d6000fd5b505050506040513d601f19601f82011682018060405250610e1c9190810190611e7d565b9150610e288286611a52565b90503373ffffffffffffffffffffffffffffffffffffffff166108fc829081150290604051600060405180830381858888f19350505050158015610e70573d6000803e3d6000fd5b50806008866040518082805190602001908083835b602083101515610eaa5780518252602082019150602081019050602083039250610e85565b6001836020036101000a038019825116818451168082178552505050505050905001915050908152602001604051809103902054036004600082825401925050819055506008856040518082805190602001908083835b602083101515610f265780518252602082019150602081019050602083039250610f01565b6001836020036101000a0380198251168184511680821785525050505050509050019150509081526020016040518091039020546003600082825403925050819055505b600560009054906101000a900473ffffffffffffffffffffffffffffffffffffffff1673ffffffffffffffffffffffffffffffffffffffff1663cebb246f6000809054906101000a900473ffffffffffffffffffffffffffffffffffffffff16336040518363ffffffff167c01000000000000000000000000000000000000000000000000000000000281526004016110049291906121ea565b600060405180830381600087803b15801561101e57600080fd5b505af1158015611032573d6000803e3d6000fd5b5050505061103f33611ad6565b608060405190810160405280605181526020017f796f7520686176652074616b656e20736f6d65206d6f6e6579206261636b206281526020017f61736564206f6e20796f7572206d6f7374206b656570696e672064617973207481526020017f6f2072656164207468697320626f6f6b2100000000000000000000000000000081525093505b505050919050565b6001600760003373ffffffffffffffffffffffffffffffffffffffff1673ffffffffffffffffffffffffffffffffffffffff16815260200190815260200160002060000160146101000a81548160ff021916908315150217905550565b60606000809054906101000a900473ffffffffffffffffffffffffffffffffffffffff1673ffffffffffffffffffffffffffffffffffffffff163373ffffffffffffffffffffffffffffffffffffffff1614806111d35750600760003373ffffffffffffffffffffffffffffffffffffffff1673ffffffffffffffffffffffffffffffffffffffff16815260200190815260200160002060000160149054906101000a900460ff165b6002901515611218576040517f08c379a000000000000000000000000000000000000000000000000000000000815260040161120f91906122cc565b60405180910390fd5b506001805480602002602001604051908101604052809291908181526020016000905b828210156112f7578382906000526020600020018054600181600116156101000203166002900480601f0160208091040260200160405190810160405280929190818152602001828054600181600116156101000203166002900480156112e35780601f106112b8576101008083540402835291602001916112e3565b820191906000526020600020905b8154815290600101906020018083116112c657829003601f168201915b50505050508152602001906001019061123b565b50505050905090565b6000809054906101000a900473ffffffffffffffffffffffffffffffffffffffff1673ffffffffffffffffffffffffffffffffffffffff163373ffffffffffffffffffffffffffffffffffffffff16141515611391576040517f08c379a00000000000000000000000000000000000000000000000000000000081526004016113889061234e565b60405180910390fd5b80600560006101000a81548173ffffffffffffffffffffffffffffffffffffffff021916908373ffffffffffffffffffffffffffffffffffffffff16021790555050565b60008060009054906101000a900473ffffffffffffffffffffffffffffffffffffffff1673ffffffffffffffffffffffffffffffffffffffff163373ffffffffffffffffffffffffffffffffffffffff16148061147e5750600760003373ffffffffffffffffffffffffffffffffffffffff1673ffffffffffffffffffffffffffffffffffffffff16815260200190815260200160002060000160149054906101000a900460ff165b60029015156114c3576040517f08c379a00000000000000000000000000000000000000000000000000000000081526004016114ba91906122cc565b60405180910390fd5b506008826040518082805190602001908083835b6020831015156114fc57805182526020820191506020810190506020830392506114d7565b6001836020036101000a0380198251168184511680821785525050505050509050019150509081526020016040518091039020549050919050565b60008060009054906101000a900473ffffffffffffffffffffffffffffffffffffffff1673ffffffffffffffffffffffffffffffffffffffff163373ffffffffffffffffffffffffffffffffffffffff1614151561159457600080fd5b6000809054906101000a900473ffffffffffffffffffffffffffffffffffffffff16905090565b60606000809054906101000a900473ffffffffffffffffffffffffffffffffffffffff1673ffffffffffffffffffffffffffffffffffffffff163373ffffffffffffffffffffffffffffffffffffffff16141561164f576040805190810160405280601e81526020017f426f73732c2074686520626f6f6b732061726520616c6c20796f7572732e000081525090506119f0565b600760003373ffffffffffffffffffffffffffffffffffffffff1673ffffffffffffffffffffffffffffffffffffffff16815260200190815260200160002060000160149054906101000a900460ff1660029015156116e4576040517f08c379a00000000000000000000000000000000000000000000000000000000081526004016116db91906122cc565b60405180910390fd5b50600760003373ffffffffffffffffffffffffffffffffffffffff1673ffffffffffffffffffffffffffffffffffffffff16815260200190815260200160002060000160159054906101000a900460ff16151515611777576040517f08c379a000000000000000000000000000000000000000000000000000000000815260040161176e906122ee565b60405180910390fd5b6008826040518082805190602001908083835b6020831015156117af578051825260208201915060208101905060208303925061178a565b6001836020036101000a03801982511681845116808217855250505050505090500191505090815260200160405180910390205434141515611826576040517f08c379a000000000000000000000000000000000000000000000000000000000815260040161181d9061230e565b60405180910390fd5b34600360008282540192505081905550600560009054906101000a900473ffffffffffffffffffffffffffffffffffffffff1673ffffffffffffffffffffffffffffffffffffffff1663813713426000809054906101000a900473ffffffffffffffffffffffffffffffffffffffff1633856040518463ffffffff167c01000000000000000000000000000000000000000000000000000000000281526004016118d293929190612213565b600060405180830381600087803b1580156118ec57600080fd5b505af1158015611900573d6000803e3d6000fd5b505050506040513d6000823e3d601f19601f820116820180604052506119299190810190611e3c565b5060063390806001815401808255809150509060018203906000526020600020016000909192909190916101000a81548173ffffffffffffffffffffffffffffffffffffffff021916908373ffffffffffffffffffffffffffffffffffffffff16021790555050606060405190810160405280602781526020017f596f75206861766520626f75676874207468697320626f6f6b2073756363657381526020017f7366756c6c79210000000000000000000000000000000000000000000000000081525090505b919050565b6000600760003373ffffffffffffffffffffffffffffffffffffffff1673ffffffffffffffffffffffffffffffffffffffff16815260200190815260200160002060000160146101000a81548160ff021916908315150217905550565b600060506008836040518082805190602001908083835b602083101515611a8e5780518252602082019150602081019050602083039250611a69565b6001836020036101000a0380198251168184511680821785525050505050509050019150509081526020016040518091039020548402811515611acd57fe5b04905092915050565b6000806000915060068054905090505b80821015611b6b578273ffffffffffffffffffffffffffffffffffffffff16600683815481101515611b1457fe5b9060005260206000200160009054906101000a900473ffffffffffffffffffffffffffffffffffffffff1673ffffffffffffffffffffffffffffffffffffffff161415611b6057611b6b565b816001019150611ae6565b5b60018103821015611c1657600660018301815481101515611b8957fe5b9060005260206000200160009054906101000a900473ffffffffffffffffffffffffffffffffffffffff16600683815481101515611bc357fe5b9060005260206000200160006101000a81548173ffffffffffffffffffffffffffffffffffffffff021916908373ffffffffffffffffffffffffffffffffffffffff160217905550816001019150611b6c565b600660018203815481101515611c2857fe5b9060005260206000200160006101000a81549073ffffffffffffffffffffffffffffffffffffffff02191690556006805480919060019003611c6a9190611c70565b50505050565b815481835581811115611c9757818360005260206000209182019101611c969190611c9c565b5b505050565b611cbe91905b80821115611cba576000816000905550600101611ca2565b5090565b90565b6000611ccd8251612479565b905092915050565b6000611ce18235612485565b905092915050565b600082601f8301121515611cfc57600080fd5b8135611d0f611d0a826123d6565b6123a9565b91508082526020830160208301858383011115611d2b57600080fd5b611d368382846124a1565b50505092915050565b600082601f8301121515611d5257600080fd5b8151611d65611d60826123d6565b6123a9565b91508082526020830160208301858383011115611d8157600080fd5b611d8c8382846124b0565b50505092915050565b6000611da18251612497565b905092915050565b600060208284031215611dbb57600080fd5b6000611dc984828501611cc1565b91505092915050565b600060208284031215611de457600080fd5b6000611df284828501611cd5565b91505092915050565b600060208284031215611e0d57600080fd5b600082013567ffffffffffffffff811115611e2757600080fd5b611e3384828501611ce9565b91505092915050565b600060208284031215611e4e57600080fd5b600082015167ffffffffffffffff811115611e6857600080fd5b611e7484828501611d3f565b91505092915050565b600060208284031215611e8f57600080fd5b6000611e9d84828501611d95565b91505092915050565b611eaf8161244f565b82525050565b6000611ec082612421565b80845260208401935083602082028501611ed985612402565b60005b84811015611f12578383038852611ef4838351611f59565b9250611eff82612442565b9150602088019750600181019050611edc565b508196508694505050505092915050565b6000611f2e82612437565b808452611f428160208601602086016124b0565b611f4b816124e3565b602085010191505092915050565b6000611f648261242c565b808452611f788160208601602086016124b0565b611f81816124e3565b602085010191505092915050565b600081546001811660008114611fac5760018114611fcc5761200d565b607f600283041680865260ff19831660208701526040860193505061200d565b60028204808652602086019550611fe28561240f565b60005b8281101561200457815481890152600182019150602081019050611fe5565b80880195505050505b505092915050565b6000601882527f596f752068617665206120626f6f6b20616c72656164792e00000000000000006020830152604082019050919050565b6000603882527f546865206d6f6e657920796f7520706179206973206e6f7420657175616c207460208301527f6f20746865207072696365206f662074686520626f6f6b2e00000000000000006040830152606082019050919050565b6000602482527f596f7520646f6e277420686176652074686520726967687420746f20646f207460208301527f6861742e000000000000000000000000000000000000000000000000000000006040830152606082019050919050565b6000602382527f596f7520646f6e277420686176652074686520726967687420746f20646f207460208301527f68617400000000000000000000000000000000000000000000000000000000006040830152606082019050919050565b6000602882527f426f73732c20796f7520617265207468652073656c6c6572206e6f742074686560208301527f207265616465722e0000000000000000000000000000000000000000000000006040830152606082019050919050565b6121c98161246f565b82525050565b60006020820190506121e46000830184611ea6565b92915050565b60006040820190506121ff6000830185611ea6565b61220c6020830184611ea6565b9392505050565b60006060820190506122286000830186611ea6565b6122356020830185611ea6565b81810360408301526122478184611f23565b9050949350505050565b60006060820190506122666000830186611ea6565b6122736020830185611ea6565b61228060408301846121c0565b949350505050565b600060208201905081810360008301526122a28184611eb5565b905092915050565b600060208201905081810360008301526122c48184611f23565b905092915050565b600060208201905081810360008301526122e68184611f8f565b905092915050565b6000602082019050818103600083015261230781612015565b9050919050565b600060208201905081810360008301526123278161204c565b9050919050565b60006020820190508181036000830152612347816120a9565b9050919050565b6000602082019050818103600083015261236781612106565b9050919050565b6000602082019050818103600083015261238781612163565b9050919050565b60006020820190506123a360008301846121c0565b92915050565b6000604051905081810181811067ffffffffffffffff821117156123cc57600080fd5b8060405250919050565b600067ffffffffffffffff8211156123ed57600080fd5b601f19601f8301169050602081019050919050565b6000602082019050919050565b60008160005260206000209050919050565b600081519050919050565b600081519050919050565b600081519050919050565b6000602082019050919050565b600073ffffffffffffffffffffffffffffffffffffffff82169050919050565b6000819050919050565b60008115159050919050565b60006124908261244f565b9050919050565b6000819050919050565b82818337600083830152505050565b60005b838110156124ce5780820151818401526020810190506124b3565b838111156124dd576000848401525b50505050565b6000601f19601f83011690509190505600a265627a7a72305820f4e12d62c148055d8690256f409ba09084a40113b747c4282950c47e831124d16c6578706572696d656e74616cf50037",
  "source": "pragma solidity ^0.4.24;\npragma experimental ABIEncoderV2;\n\nimport \"./Bookshelf.sol\";\n\ncontract RlreadStore {\n\n    struct Reader {\n        address addr;\n        bool enter;\n        bool has_books;\n    }\n\n    //\n    address internal seller;\n    string[] books = [\"Harry Potter\", \"Island\", \"The shadow thief\", \"The Kite Runner\"];\n    string  notEnterWarn = \"you haven't entered this bookstore yet!\";\n\n    //\n    uint internal lockAmount;\n\n    //\n    uint internal unlockAmount;\n\n    //\n    Bookshelf internal bookshelf;\n    address[] reader_addresses;\n    //\n    mapping(address => Reader) Readers;\n    mapping(string => uint) book_price;\n\n    constructor() public {\n        seller = msg.sender;\n        InitailThePriceOfBooks();\n    }\n\n    function getSeller() public view returns (address) {\n      require(msg.sender == seller);\n      return seller;\n    }\n\n    function InitailThePriceOfBooks() internal {\n        book_price[\"Harry Potter\"] = 10000;\n        book_price[\"Island\"] = 20000;\n        book_price[\"The shadow thief\"] = 30000;\n        book_price[\"The Kite Runner\"] = 30000;\n    }\n\n    function EnterBookshop() public {\n        Readers[msg.sender].enter = true;\n    }\n\n    function LeaveBookshop() public {\n        Readers[msg.sender].enter = false;\n    }\n\n    function ListBooks() public view returns (string[]) {\n        // if (!Readers[msg.sender].enter) {\n        //     revert(notEnterWarn);\n        // }\n        require(msg.sender == seller || Readers[msg.sender].enter, notEnterWarn);\n        return books;\n    }\n\n    function GetThePriceofTheBook(string bookname) public view returns (uint) {\n        require(msg.sender == seller || Readers[msg.sender].enter, notEnterWarn);\n        return book_price[bookname];\n    }\n\n    function BuyTheBook(string bookname) public payable returns (string)  {\n        if (msg.sender == seller)\n            return \"Boss, the books are all yours.\";\n        require(Readers[msg.sender].enter, notEnterWarn);\n        require(!Readers[msg.sender].has_books, \"You have a book already.\");\n        require(msg.value == book_price[bookname], \"The money you pay is not equal to the price of the book.\");\n        lockAmount += msg.value;\n        bookshelf.putAbookIn(seller, msg.sender, bookname);\n        reader_addresses.push(msg.sender);\n        return \"You have bought this book successfully!\";\n    }\n\n    function SetBookshelf(Bookshelf _bookshelf) public {\n        require(msg.sender == seller, \"You don't have the right to do that\");\n        bookshelf = _bookshelf;\n    }\n\n    function deleteReaderByAddress(address reader) internal {\n        uint i = 0;\n        uint length = reader_addresses.length;\n        for ( ; i < length; ++i) {\n            if (reader_addresses[i] == reader)\n                break;\n        }\n        for ( ; i < length - 1; ++i) {\n            reader_addresses[i] = reader_addresses[i + 1];\n        }\n        delete reader_addresses[length - 1];\n        reader_addresses.length--;\n    }\n\n    function calculateTheMoneyReaderCanGet(uint mostKeepDays, string bookname) internal view returns (uint) {\n        return mostKeepDays * book_price[bookname] / 80;\n    }\n\n    function ReaderGetMoney(string bookname) public returns (string) {\n        require(Readers[msg.sender].enter, notEnterWarn);\n        require(msg.sender != seller, \"Boss, you are the seller not the reader.\");\n        if (bookshelf.GetAlldaysSpent(msg.sender) < 80) {\n            return \"The days spent in this book is less than 80 days so that you can't get the money.\";\n        } else if (bookshelf.BeCheckedOrNot(msg.sender)) {\n            uint money = bookshelf.CheckTheMoneyNowCanGet(msg.sender);\n            msg.sender.transfer(money);\n            lockAmount -= money;\n        } else {\n            uint mostKeepDays = bookshelf.GetTheMostKeepDays(msg.sender);\n            uint moneyReaderCanGet = calculateTheMoneyReaderCanGet(mostKeepDays, bookname);\n            msg.sender.transfer(moneyReaderCanGet);\n            unlockAmount += book_price[bookname] - moneyReaderCanGet;\n            lockAmount -= book_price[bookname];\n        }\n        //\n        bookshelf.clearbookOfReader(seller, msg.sender);\n        deleteReaderByAddress(msg.sender);\n        return \"you have taken some money back based on your most keeping days to read this book!\";\n    }\n\n    function SellerGetMoney() public returns (string) {\n        require(msg.sender == seller, \"You don't have the right to do that.\");\n        for (uint i = 0; i < reader_addresses.length; ++i) {\n            if (bookshelf.GetAlldaysSpent(reader_addresses[i]) == 80) {\n                uint mostKeepDays = bookshelf.GetTheMostKeepDays(reader_addresses[i]);\n                string memory bookname = bookshelf.GetOwnBookName(reader_addresses[i]);\n                uint moneyReaderCanGet = calculateTheMoneyReaderCanGet(mostKeepDays, bookname);\n                bookshelf.CheckTheShelf(seller, reader_addresses[i], moneyReaderCanGet);\n                unlockAmount += book_price[bookname] - moneyReaderCanGet;\n                lockAmount -= book_price[bookname] - moneyReaderCanGet;\n            }\n        }\n        seller.transfer(unlockAmount);\n        unlockAmount = 0;\n        return \"You have got all the money you can get now.\";\n\n    }\n\n}\n",
  "sourcePath": "C:\\DownloadSoftware\\LearningMaterials\\blockchain\\finalProjectv2\\test\\contracts\\RlreadStore.sol",
  "compiler": {
    "name": "solc",
    "version": "0.4.24+commit.e67f0147.Emscripten.clang"
  },
  "schemaVersion": "2.0.1",
  "updatedAt": "2018-12-27T14:27:23.415Z"
}